{
  "contractName": "UDALProtocol",
  "abi": [
    {
      "anonymous": false,
      "inputs": [
        {
          "indexed": true,
          "internalType": "address",
          "name": "owner",
          "type": "address"
        },
        {
          "indexed": true,
          "internalType": "address",
          "name": "approved",
          "type": "address"
        },
        {
          "indexed": true,
          "internalType": "uint256",
          "name": "tokenId",
          "type": "uint256"
        }
      ],
      "name": "Approval",
      "type": "event"
    },
    {
      "anonymous": false,
      "inputs": [
        {
          "indexed": true,
          "internalType": "address",
          "name": "owner",
          "type": "address"
        },
        {
          "indexed": true,
          "internalType": "address",
          "name": "operator",
          "type": "address"
        },
        {
          "indexed": false,
          "internalType": "bool",
          "name": "approved",
          "type": "bool"
        }
      ],
      "name": "ApprovalForAll",
      "type": "event"
    },
    {
      "anonymous": false,
      "inputs": [
        {
          "indexed": false,
          "internalType": "string",
          "name": "assetURI",
          "type": "string"
        },
        {
          "indexed": false,
          "internalType": "uint256",
          "name": "amount",
          "type": "uint256"
        }
      ],
      "name": "LicencePurchased",
      "type": "event"
    },
    {
      "anonymous": false,
      "inputs": [
        {
          "indexed": true,
          "internalType": "address",
          "name": "from",
          "type": "address"
        },
        {
          "indexed": true,
          "internalType": "address",
          "name": "to",
          "type": "address"
        },
        {
          "indexed": true,
          "internalType": "uint256",
          "name": "tokenId",
          "type": "uint256"
        }
      ],
      "name": "Transfer",
      "type": "event"
    },
    {
      "inputs": [
        {
          "internalType": "address",
          "name": "to",
          "type": "address"
        },
        {
          "internalType": "uint256",
          "name": "tokenId",
          "type": "uint256"
        }
      ],
      "name": "approve",
      "outputs": [],
      "stateMutability": "nonpayable",
      "type": "function"
    },
    {
      "inputs": [
        {
          "internalType": "address",
          "name": "owner",
          "type": "address"
        }
      ],
      "name": "balanceOf",
      "outputs": [
        {
          "internalType": "uint256",
          "name": "",
          "type": "uint256"
        }
      ],
      "stateMutability": "view",
      "type": "function"
    },
    {
      "inputs": [
        {
          "internalType": "uint256",
          "name": "tokenId",
          "type": "uint256"
        }
      ],
      "name": "burn",
      "outputs": [],
      "stateMutability": "nonpayable",
      "type": "function"
    },
    {
      "inputs": [
        {
          "internalType": "uint256",
          "name": "tokenId",
          "type": "uint256"
        }
      ],
      "name": "getApproved",
      "outputs": [
        {
          "internalType": "address",
          "name": "",
          "type": "address"
        }
      ],
      "stateMutability": "view",
      "type": "function"
    },
    {
      "inputs": [
        {
          "internalType": "address",
          "name": "owner",
          "type": "address"
        },
        {
          "internalType": "address",
          "name": "operator",
          "type": "address"
        }
      ],
      "name": "isApprovedForAll",
      "outputs": [
        {
          "internalType": "bool",
          "name": "",
          "type": "bool"
        }
      ],
      "stateMutability": "view",
      "type": "function"
    },
    {
      "inputs": [],
      "name": "name",
      "outputs": [
        {
          "internalType": "string",
          "name": "",
          "type": "string"
        }
      ],
      "stateMutability": "view",
      "type": "function"
    },
    {
      "inputs": [
        {
          "internalType": "uint256",
          "name": "tokenId",
          "type": "uint256"
        }
      ],
      "name": "ownerOf",
      "outputs": [
        {
          "internalType": "address",
          "name": "",
          "type": "address"
        }
      ],
      "stateMutability": "view",
      "type": "function"
    },
    {
      "inputs": [
        {
          "internalType": "address",
          "name": "from",
          "type": "address"
        },
        {
          "internalType": "address",
          "name": "to",
          "type": "address"
        },
        {
          "internalType": "uint256",
          "name": "tokenId",
          "type": "uint256"
        }
      ],
      "name": "safeTransferFrom",
      "outputs": [],
      "stateMutability": "nonpayable",
      "type": "function"
    },
    {
      "inputs": [
        {
          "internalType": "address",
          "name": "from",
          "type": "address"
        },
        {
          "internalType": "address",
          "name": "to",
          "type": "address"
        },
        {
          "internalType": "uint256",
          "name": "tokenId",
          "type": "uint256"
        },
        {
          "internalType": "bytes",
          "name": "_data",
          "type": "bytes"
        }
      ],
      "name": "safeTransferFrom",
      "outputs": [],
      "stateMutability": "nonpayable",
      "type": "function"
    },
    {
      "inputs": [
        {
          "internalType": "address",
          "name": "operator",
          "type": "address"
        },
        {
          "internalType": "bool",
          "name": "approved",
          "type": "bool"
        }
      ],
      "name": "setApprovalForAll",
      "outputs": [],
      "stateMutability": "nonpayable",
      "type": "function"
    },
    {
      "inputs": [],
      "name": "symbol",
      "outputs": [
        {
          "internalType": "string",
          "name": "",
          "type": "string"
        }
      ],
      "stateMutability": "view",
      "type": "function"
    },
    {
      "inputs": [
        {
          "internalType": "uint256",
          "name": "index",
          "type": "uint256"
        }
      ],
      "name": "tokenByIndex",
      "outputs": [
        {
          "internalType": "uint256",
          "name": "",
          "type": "uint256"
        }
      ],
      "stateMutability": "view",
      "type": "function"
    },
    {
      "inputs": [
        {
          "internalType": "address",
          "name": "owner",
          "type": "address"
        },
        {
          "internalType": "uint256",
          "name": "index",
          "type": "uint256"
        }
      ],
      "name": "tokenOfOwnerByIndex",
      "outputs": [
        {
          "internalType": "uint256",
          "name": "",
          "type": "uint256"
        }
      ],
      "stateMutability": "view",
      "type": "function"
    },
    {
      "inputs": [],
      "name": "totalSupply",
      "outputs": [
        {
          "internalType": "uint256",
          "name": "",
          "type": "uint256"
        }
      ],
      "stateMutability": "view",
      "type": "function"
    },
    {
      "inputs": [
        {
          "internalType": "address",
          "name": "from",
          "type": "address"
        },
        {
          "internalType": "address",
          "name": "to",
          "type": "address"
        },
        {
          "internalType": "uint256",
          "name": "tokenId",
          "type": "uint256"
        }
      ],
      "name": "transferFrom",
      "outputs": [],
      "stateMutability": "nonpayable",
      "type": "function"
    },
    {
      "inputs": [
        {
          "internalType": "string",
          "name": "_tokenURI",
          "type": "string"
        },
        {
          "internalType": "string",
          "name": "_assetURI",
          "type": "string"
        },
        {
          "internalType": "uint256",
          "name": "price",
          "type": "uint256"
        },
        {
          "internalType": "address payable",
          "name": "owner",
          "type": "address"
        }
      ],
      "name": "mint",
      "outputs": [],
      "stateMutability": "nonpayable",
      "type": "function"
    },
    {
      "inputs": [
        {
          "internalType": "uint256",
          "name": "tokenId",
          "type": "uint256"
        }
      ],
      "name": "assetInfo",
      "outputs": [
        {
          "internalType": "string",
          "name": "URI",
          "type": "string"
        },
        {
          "internalType": "address",
          "name": "owner",
          "type": "address"
        },
        {
          "internalType": "uint256",
          "name": "price",
          "type": "uint256"
        }
      ],
      "stateMutability": "view",
      "type": "function"
    },
    {
      "inputs": [
        {
          "internalType": "uint256",
          "name": "tokenId",
          "type": "uint256"
        }
      ],
      "name": "purchaseLicence",
      "outputs": [],
      "stateMutability": "payable",
      "type": "function"
    },
    {
      "inputs": [
        {
          "internalType": "uint256",
          "name": "tokenId",
          "type": "uint256"
        }
      ],
      "name": "assetURI",
      "outputs": [
        {
          "internalType": "string",
          "name": "",
          "type": "string"
        }
      ],
      "stateMutability": "view",
      "type": "function"
    },
    {
      "inputs": [
        {
          "internalType": "uint256",
          "name": "tokenId",
          "type": "uint256"
        }
      ],
      "name": "tokenURI",
      "outputs": [
        {
          "internalType": "string",
          "name": "",
          "type": "string"
        }
      ],
      "stateMutability": "view",
      "type": "function"
    },
    {
      "inputs": [
        {
          "internalType": "bytes4",
          "name": "interfaceId",
          "type": "bytes4"
        }
      ],
      "name": "supportsInterface",
      "outputs": [
        {
          "internalType": "bool",
          "name": "",
          "type": "bool"
        }
      ],
      "stateMutability": "view",
      "type": "function"
    }
  ],
  "bytecode": "0x60806040523480156200001157600080fd5b5060405180606001604052806025815260200162004277602591396040518060400160405280600781526020017f5544414c4e46540000000000000000000000000000000000000000000000000081525081600090805190602001906200007a9291906200009c565b508060019080519060200190620000939291906200009c565b505050620001b1565b828054620000aa906200014c565b90600052602060002090601f016020900481019282620000ce57600085556200011a565b82601f10620000e957805160ff19168380011785556200011a565b828001600101855582156200011a579182015b8281111562000119578251825591602001919060010190620000fc565b5b5090506200012991906200012d565b5090565b5b80821115620001485760008160009055506001016200012e565b5090565b600060028204905060018216806200016557607f821691505b602082108114156200017c576200017b62000182565b5b50919050565b7f4e487b7100000000000000000000000000000000000000000000000000000000600052602260045260246000fd5b6140b680620001c16000396000f3fe60806040526004361061012a5760003560e01c80635b794b44116100ab578063a879fcbb1161006f578063a879fcbb14610407578063b88d4fde14610446578063c87b56dd1461046f578063e985e9c5146104ac578063f1c68982146104e9578063f7bc6984146105265761012a565b80635b794b441461031d5780636352211e1461033957806370a082311461037657806395d89b41146103b3578063a22cb465146103de5761012a565b806323b872dd116100f257806323b872dd146102285780632f745c591461025157806342842e0e1461028e57806342966c68146102b75780634f6ccce7146102e05761012a565b806301ffc9a71461012f57806306fdde031461016c578063081812fc14610197578063095ea7b3146101d457806318160ddd146101fd575b600080fd5b34801561013b57600080fd5b5061015660048036038101906101519190612c6f565b61054f565b6040516101639190613872565b60405180910390f35b34801561017857600080fd5b50610181610561565b60405161018e919061388d565b60405180910390f35b3480156101a357600080fd5b506101be60048036038101906101b99190612d5c565b6105f3565b6040516101cb919061380b565b60405180910390f35b3480156101e057600080fd5b506101fb60048036038101906101f69190612c33565b610678565b005b34801561020957600080fd5b50610212610790565b60405161021f9190613c3d565b60405180910390f35b34801561023457600080fd5b5061024f600480360381019061024a9190612b2d565b61079d565b005b34801561025d57600080fd5b5061027860048036038101906102739190612c33565b6107fd565b6040516102859190613c3d565b60405180910390f35b34801561029a57600080fd5b506102b560048036038101906102b09190612b2d565b6108a2565b005b3480156102c357600080fd5b506102de60048036038101906102d99190612d5c565b6108c2565b005b3480156102ec57600080fd5b5061030760048036038101906103029190612d5c565b61091e565b6040516103149190613c3d565b60405180910390f35b61033760048036038101906103329190612d5c565b6109b5565b005b34801561034557600080fd5b50610360600480360381019061035b9190612d5c565b610c03565b60405161036d919061380b565b60405180910390f35b34801561038257600080fd5b5061039d60048036038101906103989190612ac8565b610cb5565b6040516103aa9190613c3d565b60405180910390f35b3480156103bf57600080fd5b506103c8610d6d565b6040516103d5919061388d565b60405180910390f35b3480156103ea57600080fd5b5061040560048036038101906104009190612bf7565b610dff565b005b34801561041357600080fd5b5061042e60048036038101906104299190612d5c565b610f80565b60405161043d939291906138af565b60405180910390f35b34801561045257600080fd5b5061046d60048036038101906104689190612b7c565b611009565b005b34801561047b57600080fd5b5061049660048036038101906104919190612d5c565b61106b565b6040516104a3919061388d565b60405180910390f35b3480156104b857600080fd5b506104d360048036038101906104ce9190612af1565b61107d565b6040516104e09190613872565b60405180910390f35b3480156104f557600080fd5b50610510600480360381019061050b9190612d5c565b611111565b60405161051d919061388d565b60405180910390f35b34801561053257600080fd5b5061054d60048036038101906105489190612cc1565b6112a1565b005b600061055a8261134f565b9050919050565b60606000805461057090613e94565b80601f016020809104026020016040519081016040528092919081815260200182805461059c90613e94565b80156105e95780601f106105be576101008083540402835291602001916105e9565b820191906000526020600020905b8154815290600101906020018083116105cc57829003601f168201915b5050505050905090565b60006105fe826113c9565b61063d576040517f08c379a000000000000000000000000000000000000000000000000000000000815260040161063490613b1d565b60405180910390fd5b6004600083815260200190815260200160002060009054906101000a900473ffffffffffffffffffffffffffffffffffffffff169050919050565b600061068382610c03565b90508073ffffffffffffffffffffffffffffffffffffffff168373ffffffffffffffffffffffffffffffffffffffff1614156106f4576040517f08c379a00000000000000000000000000000000000000000000000000000000081526004016106eb90613b7d565b60405180910390fd5b8073ffffffffffffffffffffffffffffffffffffffff16610713611435565b73ffffffffffffffffffffffffffffffffffffffff16148061074257506107418161073c611435565b61107d565b5b610781576040517f08c379a000000000000000000000000000000000000000000000000000000000815260040161077890613a3d565b60405180910390fd5b61078b838361143d565b505050565b6000600880549050905090565b6107ae6107a8611435565b826114f6565b6107ed576040517f08c379a00000000000000000000000000000000000000000000000000000000081526004016107e490613b9d565b60405180910390fd5b6107f88383836115d4565b505050565b600061080883610cb5565b8210610849576040517f08c379a00000000000000000000000000000000000000000000000000000000081526004016108409061393d565b60405180910390fd5b600660008473ffffffffffffffffffffffffffffffffffffffff1673ffffffffffffffffffffffffffffffffffffffff168152602001908152602001600020600083815260200190815260200160002054905092915050565b6108bd83838360405180602001604052806000815250611009565b505050565b6108d36108cd611435565b826114f6565b610912576040517f08c379a000000000000000000000000000000000000000000000000000000000815260040161090990613c1d565b60405180910390fd5b61091b81611830565b50565b6000610928610790565b8210610969576040517f08c379a000000000000000000000000000000000000000000000000000000000815260040161096090613bbd565b60405180910390fd5b600882815481106109a3577f4e487b7100000000000000000000000000000000000000000000000000000000600052603260045260246000fd5b90600052602060002001549050919050565b6109be816113c9565b6109fd576040517f08c379a00000000000000000000000000000000000000000000000000000000081526004016109f49061399d565b60405180910390fd5b600c600082815260200190815260200160002060010154341015610a56576040517f08c379a0000000000000000000000000000000000000000000000000000000008152600401610a4d90613bfd565b60405180910390fd5b600c600082815260200190815260200160002060030160003373ffffffffffffffffffffffffffffffffffffffff1673ffffffffffffffffffffffffffffffffffffffff16815260200190815260200160002060009054906101000a900460ff1615610af7576040517f08c379a0000000000000000000000000000000000000000000000000000000008152600401610aee90613bdd565b60405180910390fd5b610b0081610c03565b73ffffffffffffffffffffffffffffffffffffffff166108fc349081150290604051600060405180830381858888f19350505050158015610b45573d6000803e3d6000fd5b506001600c600083815260200190815260200160002060030160003373ffffffffffffffffffffffffffffffffffffffff1673ffffffffffffffffffffffffffffffffffffffff16815260200190815260200160002060006101000a81548160ff0219169083151502179055507f5370a6767260f237bfcbf13cf74e2b7abd65f354ccddfa385a6e65ae361fae4c600c600083815260200190815260200160002060000134604051610bf89291906138ed565b60405180910390a150565b6000806002600084815260200190815260200160002060009054906101000a900473ffffffffffffffffffffffffffffffffffffffff169050600073ffffffffffffffffffffffffffffffffffffffff168173ffffffffffffffffffffffffffffffffffffffff161415610cac576040517f08c379a0000000000000000000000000000000000000000000000000000000008152600401610ca390613a7d565b60405180910390fd5b80915050919050565b60008073ffffffffffffffffffffffffffffffffffffffff168273ffffffffffffffffffffffffffffffffffffffff161415610d26576040517f08c379a0000000000000000000000000000000000000000000000000000000008152600401610d1d90613a5d565b60405180910390fd5b600360008373ffffffffffffffffffffffffffffffffffffffff1673ffffffffffffffffffffffffffffffffffffffff168152602001908152602001600020549050919050565b606060018054610d7c90613e94565b80601f0160208091040260200160405190810160405280929190818152602001828054610da890613e94565b8015610df55780601f10610dca57610100808354040283529160200191610df5565b820191906000526020600020905b815481529060010190602001808311610dd857829003601f168201915b5050505050905090565b610e07611435565b73ffffffffffffffffffffffffffffffffffffffff168273ffffffffffffffffffffffffffffffffffffffff161415610e75576040517f08c379a0000000000000000000000000000000000000000000000000000000008152600401610e6c906139dd565b60405180910390fd5b8060056000610e82611435565b73ffffffffffffffffffffffffffffffffffffffff1673ffffffffffffffffffffffffffffffffffffffff16815260200190815260200160002060008473ffffffffffffffffffffffffffffffffffffffff1673ffffffffffffffffffffffffffffffffffffffff16815260200190815260200160002060006101000a81548160ff0219169083151502179055508173ffffffffffffffffffffffffffffffffffffffff16610f2f611435565b73ffffffffffffffffffffffffffffffffffffffff167f17307eab39ab6107e8899845ad3d59bd9653f200f220920489ca2b5937696c3183604051610f749190613872565b60405180910390a35050565b6060600080610f8e846113c9565b610fcd576040517f08c379a0000000000000000000000000000000000000000000000000000000008152600401610fc490613abd565b60405180910390fd5b6000610fd88561183c565b905080610fe486610c03565b600c600088815260200190815260200160002060010154935093509350509193909250565b61101a611014611435565b836114f6565b611059576040517f08c379a000000000000000000000000000000000000000000000000000000000815260040161105090613b9d565b60405180910390fd5b6110658484848461198e565b50505050565b60606110768261183c565b9050919050565b6000600560008473ffffffffffffffffffffffffffffffffffffffff1673ffffffffffffffffffffffffffffffffffffffff16815260200190815260200160002060008373ffffffffffffffffffffffffffffffffffffffff1673ffffffffffffffffffffffffffffffffffffffff16815260200190815260200160002060009054906101000a900460ff16905092915050565b606061111c826113c9565b61115b576040517f08c379a00000000000000000000000000000000000000000000000000000000081526004016111529061391d565b60405180910390fd5b600c600083815260200190815260200160002060030160003373ffffffffffffffffffffffffffffffffffffffff1673ffffffffffffffffffffffffffffffffffffffff16815260200190815260200160002060009054906101000a900460ff166111fb576040517f08c379a00000000000000000000000000000000000000000000000000000000081526004016111f2906139fd565b60405180910390fd5b600c6000838152602001908152602001600020600001805461121c90613e94565b80601f016020809104026020016040519081016040528092919081815260200182805461124890613e94565b80156112955780601f1061126a57610100808354040283529160200191611295565b820191906000526020600020905b81548152906001019060200180831161127857829003601f168201915b50505050509050919050565b6112ab600b6119ea565b60006112b7600b611a00565b90506000600c6000838152602001908152602001600020905085858260000191906112e392919061282f565b508381600101819055506112f78383611a0e565b6113458289898080601f016020809104026020016040519081016040528093929190818152602001838380828437600081840152601f19601f82011690508083019250505050505050611a2c565b5050505050505050565b60007f780e9d63000000000000000000000000000000000000000000000000000000007bffffffffffffffffffffffffffffffffffffffffffffffffffffffff1916827bffffffffffffffffffffffffffffffffffffffffffffffffffffffff191614806113c257506113c182611aa0565b5b9050919050565b60008073ffffffffffffffffffffffffffffffffffffffff166002600084815260200190815260200160002060009054906101000a900473ffffffffffffffffffffffffffffffffffffffff1673ffffffffffffffffffffffffffffffffffffffff1614159050919050565b600033905090565b816004600083815260200190815260200160002060006101000a81548173ffffffffffffffffffffffffffffffffffffffff021916908373ffffffffffffffffffffffffffffffffffffffff160217905550808273ffffffffffffffffffffffffffffffffffffffff166114b083610c03565b73ffffffffffffffffffffffffffffffffffffffff167f8c5be1e5ebec7d5bd14f71427d1e84f3dd0314c0f7b2291e5b200ac8c7c3b92560405160405180910390a45050565b6000611501826113c9565b611540576040517f08c379a000000000000000000000000000000000000000000000000000000000815260040161153790613a1d565b60405180910390fd5b600061154b83610c03565b90508073ffffffffffffffffffffffffffffffffffffffff168473ffffffffffffffffffffffffffffffffffffffff1614806115ba57508373ffffffffffffffffffffffffffffffffffffffff166115a2846105f3565b73ffffffffffffffffffffffffffffffffffffffff16145b806115cb57506115ca818561107d565b5b91505092915050565b8273ffffffffffffffffffffffffffffffffffffffff166115f482610c03565b73ffffffffffffffffffffffffffffffffffffffff161461164a576040517f08c379a000000000000000000000000000000000000000000000000000000000815260040161164190613b3d565b60405180910390fd5b600073ffffffffffffffffffffffffffffffffffffffff168273ffffffffffffffffffffffffffffffffffffffff1614156116ba576040517f08c379a00000000000000000000000000000000000000000000000000000000081526004016116b1906139bd565b60405180910390fd5b6116c5838383611b82565b6116d060008261143d565b6001600360008573ffffffffffffffffffffffffffffffffffffffff1673ffffffffffffffffffffffffffffffffffffffff16815260200190815260200160002060008282546117209190613d98565b925050819055506001600360008473ffffffffffffffffffffffffffffffffffffffff1673ffffffffffffffffffffffffffffffffffffffff16815260200190815260200160002060008282546117779190613d11565b92505081905550816002600083815260200190815260200160002060006101000a81548173ffffffffffffffffffffffffffffffffffffffff021916908373ffffffffffffffffffffffffffffffffffffffff160217905550808273ffffffffffffffffffffffffffffffffffffffff168473ffffffffffffffffffffffffffffffffffffffff167fddf252ad1be2c89b69c2b068fc378daa952ba7f163c4a11628f55a4df523b3ef60405160405180910390a4505050565b61183981611b92565b50565b6060611847826113c9565b611886576040517f08c379a000000000000000000000000000000000000000000000000000000000815260040161187d90613afd565b60405180910390fd5b6000600a600084815260200190815260200160002080546118a690613e94565b80601f01602080910402602001604051908101604052809291908181526020018280546118d290613e94565b801561191f5780601f106118f45761010080835404028352916020019161191f565b820191906000526020600020905b81548152906001019060200180831161190257829003601f168201915b505050505090506000611930611be5565b9050600081511415611946578192505050611989565b60008251111561197b5780826040516020016119639291906137e7565b60405160208183030381529060405292505050611989565b61198484611bfc565b925050505b919050565b6119998484846115d4565b6119a584848484611ca3565b6119e4576040517f08c379a00000000000000000000000000000000000000000000000000000000081526004016119db9061395d565b60405180910390fd5b50505050565b6001816000016000828254019250508190555050565b600081600001549050919050565b611a28828260405180602001604052806000815250611e3a565b5050565b611a35826113c9565b611a74576040517f08c379a0000000000000000000000000000000000000000000000000000000008152600401611a6b90613a9d565b60405180910390fd5b80600a60008481526020019081526020016000209080519060200190611a9b9291906128b5565b505050565b60007f80ac58cd000000000000000000000000000000000000000000000000000000007bffffffffffffffffffffffffffffffffffffffffffffffffffffffff1916827bffffffffffffffffffffffffffffffffffffffffffffffffffffffff19161480611b6b57507f5b5e139f000000000000000000000000000000000000000000000000000000007bffffffffffffffffffffffffffffffffffffffffffffffffffffffff1916827bffffffffffffffffffffffffffffffffffffffffffffffffffffffff1916145b80611b7b5750611b7a82611e95565b5b9050919050565b611b8d838383611eff565b505050565b611b9b81612013565b6000600a60008381526020019081526020016000208054611bbb90613e94565b905014611be257600a60008281526020019081526020016000206000611be1919061293b565b5b50565b606060405180602001604052806000815250905090565b6060611c07826113c9565b611c46576040517f08c379a0000000000000000000000000000000000000000000000000000000008152600401611c3d90613b5d565b60405180910390fd5b6000611c50611be5565b90506000815111611c705760405180602001604052806000815250611c9b565b80611c7a84612124565b604051602001611c8b9291906137e7565b6040516020818303038152906040525b915050919050565b6000611cc48473ffffffffffffffffffffffffffffffffffffffff166122d1565b15611e2d578373ffffffffffffffffffffffffffffffffffffffff1663150b7a02611ced611435565b8786866040518563ffffffff1660e01b8152600401611d0f9493929190613826565b602060405180830381600087803b158015611d2957600080fd5b505af1925050508015611d5a57506040513d601f19601f82011682018060405250810190611d579190612c98565b60015b611ddd573d8060008114611d8a576040519150601f19603f3d011682016040523d82523d6000602084013e611d8f565b606091505b50600081511415611dd5576040517f08c379a0000000000000000000000000000000000000000000000000000000008152600401611dcc9061395d565b60405180910390fd5b805181602001fd5b63150b7a0260e01b7bffffffffffffffffffffffffffffffffffffffffffffffffffffffff1916817bffffffffffffffffffffffffffffffffffffffffffffffffffffffff191614915050611e32565b600190505b949350505050565b611e4483836122e4565b611e516000848484611ca3565b611e90576040517f08c379a0000000000000000000000000000000000000000000000000000000008152600401611e879061395d565b60405180910390fd5b505050565b60007f01ffc9a7000000000000000000000000000000000000000000000000000000007bffffffffffffffffffffffffffffffffffffffffffffffffffffffff1916827bffffffffffffffffffffffffffffffffffffffffffffffffffffffff1916149050919050565b611f0a8383836124b2565b600073ffffffffffffffffffffffffffffffffffffffff168373ffffffffffffffffffffffffffffffffffffffff161415611f4d57611f48816124b7565b611f8c565b8173ffffffffffffffffffffffffffffffffffffffff168373ffffffffffffffffffffffffffffffffffffffff1614611f8b57611f8a8382612500565b5b5b600073ffffffffffffffffffffffffffffffffffffffff168273ffffffffffffffffffffffffffffffffffffffff161415611fcf57611fca8161266d565b61200e565b8273ffffffffffffffffffffffffffffffffffffffff168273ffffffffffffffffffffffffffffffffffffffff161461200d5761200c82826127b0565b5b5b505050565b600061201e82610c03565b905061202c81600084611b82565b61203760008361143d565b6001600360008373ffffffffffffffffffffffffffffffffffffffff1673ffffffffffffffffffffffffffffffffffffffff16815260200190815260200160002060008282546120879190613d98565b925050819055506002600083815260200190815260200160002060006101000a81549073ffffffffffffffffffffffffffffffffffffffff021916905581600073ffffffffffffffffffffffffffffffffffffffff168273ffffffffffffffffffffffffffffffffffffffff167fddf252ad1be2c89b69c2b068fc378daa952ba7f163c4a11628f55a4df523b3ef60405160405180910390a45050565b6060600082141561216c576040518060400160405280600181526020017f300000000000000000000000000000000000000000000000000000000000000081525090506122cc565b600082905060005b6000821461219e57808061218790613ec6565b915050600a826121979190613d67565b9150612174565b60008167ffffffffffffffff8111156121e0577f4e487b7100000000000000000000000000000000000000000000000000000000600052604160045260246000fd5b6040519080825280601f01601f1916602001820160405280156122125781602001600182028036833780820191505090505b5090505b600085146122c55760018261222b9190613d98565b9150600a8561223a9190613f0f565b60306122469190613d11565b60f81b818381518110612282577f4e487b7100000000000000000000000000000000000000000000000000000000600052603260045260246000fd5b60200101907effffffffffffffffffffffffffffffffffffffffffffffffffffffffffffff1916908160001a905350600a856122be9190613d67565b9450612216565b8093505050505b919050565b600080823b905060008111915050919050565b600073ffffffffffffffffffffffffffffffffffffffff168273ffffffffffffffffffffffffffffffffffffffff161415612354576040517f08c379a000000000000000000000000000000000000000000000000000000000815260040161234b90613add565b60405180910390fd5b61235d816113c9565b1561239d576040517f08c379a00000000000000000000000000000000000000000000000000000000081526004016123949061397d565b60405180910390fd5b6123a960008383611b82565b6001600360008473ffffffffffffffffffffffffffffffffffffffff1673ffffffffffffffffffffffffffffffffffffffff16815260200190815260200160002060008282546123f99190613d11565b92505081905550816002600083815260200190815260200160002060006101000a81548173ffffffffffffffffffffffffffffffffffffffff021916908373ffffffffffffffffffffffffffffffffffffffff160217905550808273ffffffffffffffffffffffffffffffffffffffff16600073ffffffffffffffffffffffffffffffffffffffff167fddf252ad1be2c89b69c2b068fc378daa952ba7f163c4a11628f55a4df523b3ef60405160405180910390a45050565b505050565b6008805490506009600083815260200190815260200160002081905550600881908060018154018082558091505060019003906000526020600020016000909190919091505550565b6000600161250d84610cb5565b6125179190613d98565b90506000600760008481526020019081526020016000205490508181146125fc576000600660008673ffffffffffffffffffffffffffffffffffffffff1673ffffffffffffffffffffffffffffffffffffffff168152602001908152602001600020600084815260200190815260200160002054905080600660008773ffffffffffffffffffffffffffffffffffffffff1673ffffffffffffffffffffffffffffffffffffffff168152602001908152602001600020600084815260200190815260200160002081905550816007600083815260200190815260200160002081905550505b6007600084815260200190815260200160002060009055600660008573ffffffffffffffffffffffffffffffffffffffff1673ffffffffffffffffffffffffffffffffffffffff16815260200190815260200160002060008381526020019081526020016000206000905550505050565b600060016008805490506126819190613d98565b90506000600960008481526020019081526020016000205490506000600883815481106126d7577f4e487b7100000000000000000000000000000000000000000000000000000000600052603260045260246000fd5b90600052602060002001549050806008838154811061271f577f4e487b7100000000000000000000000000000000000000000000000000000000600052603260045260246000fd5b906000526020600020018190555081600960008381526020019081526020016000208190555060096000858152602001908152602001600020600090556008805480612794577f4e487b7100000000000000000000000000000000000000000000000000000000600052603160045260246000fd5b6001900381819060005260206000200160009055905550505050565b60006127bb83610cb5565b905081600660008573ffffffffffffffffffffffffffffffffffffffff1673ffffffffffffffffffffffffffffffffffffffff168152602001908152602001600020600083815260200190815260200160002081905550806007600084815260200190815260200160002081905550505050565b82805461283b90613e94565b90600052602060002090601f01602090048101928261285d57600085556128a4565b82601f1061287657803560ff19168380011785556128a4565b828001600101855582156128a4579182015b828111156128a3578235825591602001919060010190612888565b5b5090506128b1919061297b565b5090565b8280546128c190613e94565b90600052602060002090601f0160209004810192826128e3576000855561292a565b82601f106128fc57805160ff191683800117855561292a565b8280016001018555821561292a579182015b8281111561292957825182559160200191906001019061290e565b5b509050612937919061297b565b5090565b50805461294790613e94565b6000825580601f106129595750612978565b601f016020900490600052602060002090810190612977919061297b565b5b50565b5b8082111561299457600081600090555060010161297c565b5090565b60006129ab6129a684613c89565b613c58565b9050828152602081018484840111156129c357600080fd5b6129ce848285613e52565b509392505050565b6000813590506129e58161400d565b92915050565b6000813590506129fa81614024565b92915050565b600081359050612a0f8161403b565b92915050565b600081359050612a2481614052565b92915050565b600081519050612a3981614052565b92915050565b600082601f830112612a5057600080fd5b8135612a60848260208601612998565b91505092915050565b60008083601f840112612a7b57600080fd5b8235905067ffffffffffffffff811115612a9457600080fd5b602083019150836001820283011115612aac57600080fd5b9250929050565b600081359050612ac281614069565b92915050565b600060208284031215612ada57600080fd5b6000612ae8848285016129d6565b91505092915050565b60008060408385031215612b0457600080fd5b6000612b12858286016129d6565b9250506020612b23858286016129d6565b9150509250929050565b600080600060608486031215612b4257600080fd5b6000612b50868287016129d6565b9350506020612b61868287016129d6565b9250506040612b7286828701612ab3565b9150509250925092565b60008060008060808587031215612b9257600080fd5b6000612ba0878288016129d6565b9450506020612bb1878288016129d6565b9350506040612bc287828801612ab3565b925050606085013567ffffffffffffffff811115612bdf57600080fd5b612beb87828801612a3f565b91505092959194509250565b60008060408385031215612c0a57600080fd5b6000612c18858286016129d6565b9250506020612c2985828601612a00565b9150509250929050565b60008060408385031215612c4657600080fd5b6000612c54858286016129d6565b9250506020612c6585828601612ab3565b9150509250929050565b600060208284031215612c8157600080fd5b6000612c8f84828501612a15565b91505092915050565b600060208284031215612caa57600080fd5b6000612cb884828501612a2a565b91505092915050565b60008060008060008060808789031215612cda57600080fd5b600087013567ffffffffffffffff811115612cf457600080fd5b612d0089828a01612a69565b9650965050602087013567ffffffffffffffff811115612d1f57600080fd5b612d2b89828a01612a69565b94509450506040612d3e89828a01612ab3565b9250506060612d4f89828a016129eb565b9150509295509295509295565b600060208284031215612d6e57600080fd5b6000612d7c84828501612ab3565b91505092915050565b612d8e81613dcc565b82525050565b612d9d81613df0565b82525050565b6000612dae82613cce565b612db88185613ce4565b9350612dc8818560208601613e61565b612dd181613ffc565b840191505092915050565b6000612de782613cd9565b612df18185613cf5565b9350612e01818560208601613e61565b612e0a81613ffc565b840191505092915050565b6000612e2082613cd9565b612e2a8185613d06565b9350612e3a818560208601613e61565b80840191505092915050565b60008154612e5381613e94565b612e5d8186613cf5565b94506001821660008114612e785760018114612e8a57612ebd565b60ff1983168652602086019350612ebd565b612e9385613cb9565b60005b83811015612eb557815481890152600182019150602081019050612e96565b808801955050505b50505092915050565b6000612ed3602683613cf5565b91507f617373657455524920717565727920666f72206e6f6e6578697374656e74207460008301527f6f6b656e496400000000000000000000000000000000000000000000000000006020830152604082019050919050565b6000612f39602b83613cf5565b91507f455243373231456e756d657261626c653a206f776e657220696e646578206f7560008301527f74206f6620626f756e64730000000000000000000000000000000000000000006020830152604082019050919050565b6000612f9f603283613cf5565b91507f4552433732313a207472616e7366657220746f206e6f6e20455243373231526560008301527f63656976657220696d706c656d656e74657200000000000000000000000000006020830152604082019050919050565b6000613005601c83613cf5565b91507f4552433732313a20746f6b656e20616c7265616479206d696e746564000000006000830152602082019050919050565b6000613045602d83613cf5565b91507f70757263686173654c6963656e636520717565727920666f72206e6f6e65786960008301527f7374656e7420746f6b656e4964000000000000000000000000000000000000006020830152604082019050919050565b60006130ab602483613cf5565b91507f4552433732313a207472616e7366657220746f20746865207a65726f2061646460008301527f72657373000000000000000000000000000000000000000000000000000000006020830152604082019050919050565b6000613111601983613cf5565b91507f4552433732313a20617070726f766520746f2063616c6c6572000000000000006000830152602082019050919050565b6000613151601683613cf5565b91507f486173206e6f74206265656e20707572636861736564000000000000000000006000830152602082019050919050565b6000613191602c83613cf5565b91507f4552433732313a206f70657261746f7220717565727920666f72206e6f6e657860008301527f697374656e7420746f6b656e00000000000000000000000000000000000000006020830152604082019050919050565b60006131f7603883613cf5565b91507f4552433732313a20617070726f76652063616c6c6572206973206e6f74206f7760008301527f6e6572206e6f7220617070726f76656420666f7220616c6c00000000000000006020830152604082019050919050565b600061325d602a83613cf5565b91507f4552433732313a2062616c616e636520717565727920666f7220746865207a6560008301527f726f2061646472657373000000000000000000000000000000000000000000006020830152604082019050919050565b60006132c3602983613cf5565b91507f4552433732313a206f776e657220717565727920666f72206e6f6e657869737460008301527f656e7420746f6b656e00000000000000000000000000000000000000000000006020830152604082019050919050565b6000613329602e83613cf5565b91507f45524337323155524953746f726167653a2055524920736574206f66206e6f6e60008301527f6578697374656e7420746f6b656e0000000000000000000000000000000000006020830152604082019050919050565b600061338f602783613cf5565b91507f6173736574496e666f20717565727920666f72206e6f6e6578697374656e742060008301527f746f6b656e4964000000000000000000000000000000000000000000000000006020830152604082019050919050565b60006133f5602083613cf5565b91507f4552433732313a206d696e7420746f20746865207a65726f20616464726573736000830152602082019050919050565b6000613435603183613cf5565b91507f45524337323155524953746f726167653a2055524920717565727920666f722060008301527f6e6f6e6578697374656e7420746f6b656e0000000000000000000000000000006020830152604082019050919050565b600061349b602c83613cf5565b91507f4552433732313a20617070726f76656420717565727920666f72206e6f6e657860008301527f697374656e7420746f6b656e00000000000000000000000000000000000000006020830152604082019050919050565b6000613501602983613cf5565b91507f4552433732313a207472616e73666572206f6620746f6b656e2074686174206960008301527f73206e6f74206f776e00000000000000000000000000000000000000000000006020830152604082019050919050565b6000613567602f83613cf5565b91507f4552433732314d657461646174613a2055524920717565727920666f72206e6f60008301527f6e6578697374656e7420746f6b656e00000000000000000000000000000000006020830152604082019050919050565b60006135cd602183613cf5565b91507f4552433732313a20617070726f76616c20746f2063757272656e74206f776e6560008301527f72000000000000000000000000000000000000000000000000000000000000006020830152604082019050919050565b6000613633603183613cf5565b91507f4552433732313a207472616e736665722063616c6c6572206973206e6f74206f60008301527f776e6572206e6f7220617070726f7665640000000000000000000000000000006020830152604082019050919050565b6000613699602c83613cf5565b91507f455243373231456e756d657261626c653a20676c6f62616c20696e646578206f60008301527f7574206f6620626f756e647300000000000000000000000000000000000000006020830152604082019050919050565b60006136ff601983613cf5565b91507f4c6963656e636520616c726561647920707572636861736564000000000000006000830152602082019050919050565b600061373f601a83613cf5565b91507f4e6f7420656e6f7567682045746820746f2070757263686173650000000000006000830152602082019050919050565b600061377f603083613cf5565b91507f4552433732314275726e61626c653a2063616c6c6572206973206e6f74206f7760008301527f6e6572206e6f7220617070726f766564000000000000000000000000000000006020830152604082019050919050565b6137e181613e48565b82525050565b60006137f38285612e15565b91506137ff8284612e15565b91508190509392505050565b60006020820190506138206000830184612d85565b92915050565b600060808201905061383b6000830187612d85565b6138486020830186612d85565b61385560408301856137d8565b81810360608301526138678184612da3565b905095945050505050565b60006020820190506138876000830184612d94565b92915050565b600060208201905081810360008301526138a78184612ddc565b905092915050565b600060608201905081810360008301526138c98186612ddc565b90506138d86020830185612d85565b6138e560408301846137d8565b949350505050565b600060408201905081810360008301526139078185612e46565b905061391660208301846137d8565b9392505050565b6000602082019050818103600083015261393681612ec6565b9050919050565b6000602082019050818103600083015261395681612f2c565b9050919050565b6000602082019050818103600083015261397681612f92565b9050919050565b6000602082019050818103600083015261399681612ff8565b9050919050565b600060208201905081810360008301526139b681613038565b9050919050565b600060208201905081810360008301526139d68161309e565b9050919050565b600060208201905081810360008301526139f681613104565b9050919050565b60006020820190508181036000830152613a1681613144565b9050919050565b60006020820190508181036000830152613a3681613184565b9050919050565b60006020820190508181036000830152613a56816131ea565b9050919050565b60006020820190508181036000830152613a7681613250565b9050919050565b60006020820190508181036000830152613a96816132b6565b9050919050565b60006020820190508181036000830152613ab68161331c565b9050919050565b60006020820190508181036000830152613ad681613382565b9050919050565b60006020820190508181036000830152613af6816133e8565b9050919050565b60006020820190508181036000830152613b1681613428565b9050919050565b60006020820190508181036000830152613b368161348e565b9050919050565b60006020820190508181036000830152613b56816134f4565b9050919050565b60006020820190508181036000830152613b768161355a565b9050919050565b60006020820190508181036000830152613b96816135c0565b9050919050565b60006020820190508181036000830152613bb681613626565b9050919050565b60006020820190508181036000830152613bd68161368c565b9050919050565b60006020820190508181036000830152613bf6816136f2565b9050919050565b60006020820190508181036000830152613c1681613732565b9050919050565b60006020820190508181036000830152613c3681613772565b9050919050565b6000602082019050613c5260008301846137d8565b92915050565b6000604051905081810181811067ffffffffffffffff82111715613c7f57613c7e613fcd565b5b8060405250919050565b600067ffffffffffffffff821115613ca457613ca3613fcd565b5b601f19601f8301169050602081019050919050565b60008190508160005260206000209050919050565b600081519050919050565b600081519050919050565b600082825260208201905092915050565b600082825260208201905092915050565b600081905092915050565b6000613d1c82613e48565b9150613d2783613e48565b9250827fffffffffffffffffffffffffffffffffffffffffffffffffffffffffffffffff03821115613d5c57613d5b613f40565b5b828201905092915050565b6000613d7282613e48565b9150613d7d83613e48565b925082613d8d57613d8c613f6f565b5b828204905092915050565b6000613da382613e48565b9150613dae83613e48565b925082821015613dc157613dc0613f40565b5b828203905092915050565b6000613dd782613e28565b9050919050565b6000613de982613e28565b9050919050565b60008115159050919050565b60007fffffffff0000000000000000000000000000000000000000000000000000000082169050919050565b600073ffffffffffffffffffffffffffffffffffffffff82169050919050565b6000819050919050565b82818337600083830152505050565b60005b83811015613e7f578082015181840152602081019050613e64565b83811115613e8e576000848401525b50505050565b60006002820490506001821680613eac57607f821691505b60208210811415613ec057613ebf613f9e565b5b50919050565b6000613ed182613e48565b91507fffffffffffffffffffffffffffffffffffffffffffffffffffffffffffffffff821415613f0457613f03613f40565b5b600182019050919050565b6000613f1a82613e48565b9150613f2583613e48565b925082613f3557613f34613f6f565b5b828206905092915050565b7f4e487b7100000000000000000000000000000000000000000000000000000000600052601160045260246000fd5b7f4e487b7100000000000000000000000000000000000000000000000000000000600052601260045260246000fd5b7f4e487b7100000000000000000000000000000000000000000000000000000000600052602260045260246000fd5b7f4e487b7100000000000000000000000000000000000000000000000000000000600052604160045260246000fd5b6000601f19601f8301169050919050565b61401681613dcc565b811461402157600080fd5b50565b61402d81613dde565b811461403857600080fd5b50565b61404481613df0565b811461404f57600080fd5b50565b61405b81613dfc565b811461406657600080fd5b50565b61407281613e48565b811461407d57600080fd5b5056fea26469706673582212203a2b0de30b63475ce248cbf3ebc709259613495988d549bb5690119f6a3d8a6a64736f6c63430008000033556e6976657273616c204469676974616c204173736574204c6963656e63696e67204e4654",
  "immutableReferences": {},
  "source": "// SPDX-License-Identifier: MIT\npragma solidity ^0.8.0;\n\nimport \"@openzeppelin/contracts/token/ERC721/ERC721.sol\";\nimport \"@openzeppelin/contracts/token/ERC721/extensions/ERC721Enumerable.sol\";\nimport \"@openzeppelin/contracts/token/ERC721/extensions/ERC721Burnable.sol\";\nimport \"@openzeppelin/contracts/token/ERC721/extensions/ERC721URIStorage.sol\";\nimport \"@openzeppelin/contracts/utils/Counters.sol\";\n\ncontract UDALProtocol is ERC721(\"Universal Digital Asset Licencing NFT\", \"UDALNFT\"), ERC721Enumerable, ERC721Burnable, ERC721URIStorage {\n  using Counters for Counters.Counter;\n  Counters.Counter private _counter;\n\n  struct AssetInfo {\n      string assetURI;\n      uint256 price;    // Price in wei\n      uint256 purchasedLicenceCounter;\n      mapping(address => bool) purchasedLicences;\n  }\n\n  mapping(uint256 => AssetInfo) private _assetInfo;\n\n  event LicencePurchased(string assetURI, uint256 amount);\n\n  /// @notice Registers an assete for sale in the contract\n  /// @dev tokenURI and assetURI should have prefix http, https, ipfs or ar.  For example, use ar://MAVgEMO3qlqe-qHNVs00qgwwbCb6FY2k15vJP3gBLW4 \n  ///      instead of https://arweave.net/MAVgEMO3qlqe-qHNVs00qgwwbCb6FY2k15vJP3gBLW4.  Emits Created with ID of asset when completed.\n  /// @param _tokenURI URI of the json file containing the metadata in JSON format.  Should conform to the ERC721 Metadata JSON Schema\n  /// @param _assetURI URI of the full size file the licence would be purchased for.\n  /// @param price To purchase a licence\n  /// @param owner The address of the copyright owner\n  function mint (string calldata _tokenURI, string calldata _assetURI, uint256 price, address payable owner) external {\n    _counter.increment();\n    uint256 newTokenId = _counter.current();\n    AssetInfo storage newAssetInfo = _assetInfo[newTokenId];\n    newAssetInfo.assetURI = _assetURI;\n    newAssetInfo.price = price;\n    _safeMint(owner, newTokenId);\n    _setTokenURI (newTokenId, _tokenURI);\n  }\n\n  /// @notice The stored information for a given asset\n  /// @dev Throws if asset with ID is not valid\n  /// @param tokenId Id of the asset\n  /// @return URI of the asset\n  /// @return owner of the asset\n  /// @return price of the asset in wei\n  function assetInfo (uint256 tokenId) external view returns (string memory URI, address owner, uint256 price) {\n    require(_exists(tokenId), \"assetInfo query for nonexistent tokenId\");\n    string memory uri = super.tokenURI(tokenId);\n    return (uri, ownerOf(tokenId), _assetInfo[tokenId].price);\n  } \n\n  /// @notice Creates a licence for caller and sends ETH to NFT owner\n  /// @dev Throws if ETH sent with contract is less than price\n  /// @param tokenId Id of the asset to purchase\n  function purchaseLicence(uint256 tokenId) external payable {\n      require(_exists(tokenId), \"purchaseLicence query for nonexistent tokenId\");\n      require (msg.value >= _assetInfo[tokenId].price, \"Not enough Eth to purchase\");\n      require (!_assetInfo[tokenId].purchasedLicences[msg.sender], \"Licence already purchased\");\n\n      payable(ownerOf(tokenId)).transfer(msg.value);\n      _assetInfo[tokenId].purchasedLicences[msg.sender] = true;\n      emit LicencePurchased(_assetInfo[tokenId].assetURI, msg.value);\n  }\n\n  /// @notice The metadata Uniform Resource Identifier (URI) for a given asset\n  /// @dev Throws if asset with ID is not valid. Also throws if the caller hasn't purchased the asset ID.\n  /// @param tokenId Id of the asset\n  /// @return assetURI of the fill size asset\n  function assetURI(uint256 tokenId) external view returns (string memory) {\n    require(_exists(tokenId), \"assetURI query for nonexistent tokenId\");\n    require(_assetInfo[tokenId].purchasedLicences[msg.sender], \"Has not been purchased\");\n    return _assetInfo[tokenId].assetURI;\n  }\n\n  // @notice Conforms to the ERC721 metadata extension - https://eips.ethereum.org/EIPS/eip-721\n  function tokenURI(uint256 tokenId) public view override(ERC721, ERC721URIStorage) returns (string memory) {\n    return super.tokenURI(tokenId);\n  }\n\n  // As ERC721, ERC721Enumerable, and include _beforeTokenTransfer we need to override all\n  function _beforeTokenTransfer(address from, address to, uint256 amount) internal override(ERC721, ERC721Enumerable) {\n    super._beforeTokenTransfer(from, to, amount);\n  }\n\n  // As ERC721 and ERC721Enumerable include supportsInterface we need to override both.\n  function supportsInterface(bytes4 interfaceId) public view override(ERC721, ERC721Enumerable) returns (bool) {\n        return super.supportsInterface(interfaceId);\n  }\n\n  // As ERC721 and ERC721URIStorage include supportsInterface we need to override both.\n  function _burn(uint256 tokenId) internal override (ERC721, ERC721URIStorage)  {\n    super._burn(tokenId);\n  }\n}\n",
  "sourcePath": "/home/james/playground/blockchain-developer-bootcamp-final-project/contracts/UDALProtocol.sol",
  "compiler": {
    "name": "solc",
    "version": "0.8.0+commit.c7dfd78e.Emscripten.clang"
  },
  "schemaVersion": "3.3.4",
  "updatedAt": "2021-10-25T04:24:07.295Z",
  "devdoc": {
    "kind": "dev",
    "methods": {
      "approve(address,uint256)": {
        "details": "See {IERC721-approve}."
      },
      "assetInfo(uint256)": {
        "details": "Throws if asset with ID is not valid",
        "params": {
          "tokenId": "Id of the asset"
        },
        "returns": {
          "URI": "of the asset",
          "owner": "of the asset",
          "price": "of the asset in wei"
        }
      },
      "assetURI(uint256)": {
        "details": "Throws if asset with ID is not valid. Also throws if the caller hasn't purchased the asset ID.",
        "params": {
          "tokenId": "Id of the asset"
        },
        "returns": {
          "_0": "assetURI of the fill size asset"
        }
      },
      "balanceOf(address)": {
        "details": "See {IERC721-balanceOf}."
      },
      "burn(uint256)": {
        "details": "Burns `tokenId`. See {ERC721-_burn}. Requirements: - The caller must own `tokenId` or be an approved operator."
      },
      "getApproved(uint256)": {
        "details": "See {IERC721-getApproved}."
      },
      "isApprovedForAll(address,address)": {
        "details": "See {IERC721-isApprovedForAll}."
      },
      "mint(string,string,uint256,address)": {
        "details": "tokenURI and assetURI should have prefix http, https, ipfs or ar.  For example, use ar://MAVgEMO3qlqe-qHNVs00qgwwbCb6FY2k15vJP3gBLW4       instead of https://arweave.net/MAVgEMO3qlqe-qHNVs00qgwwbCb6FY2k15vJP3gBLW4.  Emits Created with ID of asset when completed.",
        "params": {
          "_assetURI": "URI of the full size file the licence would be purchased for.",
          "_tokenURI": "URI of the json file containing the metadata in JSON format.  Should conform to the ERC721 Metadata JSON Schema",
          "owner": "The address of the copyright owner",
          "price": "To purchase a licence"
        }
      },
      "name()": {
        "details": "See {IERC721Metadata-name}."
      },
      "ownerOf(uint256)": {
        "details": "See {IERC721-ownerOf}."
      },
      "purchaseLicence(uint256)": {
        "details": "Throws if ETH sent with contract is less than price",
        "params": {
          "tokenId": "Id of the asset to purchase"
        }
      },
      "safeTransferFrom(address,address,uint256)": {
        "details": "See {IERC721-safeTransferFrom}."
      },
      "safeTransferFrom(address,address,uint256,bytes)": {
        "details": "See {IERC721-safeTransferFrom}."
      },
      "setApprovalForAll(address,bool)": {
        "details": "See {IERC721-setApprovalForAll}."
      },
      "symbol()": {
        "details": "See {IERC721Metadata-symbol}."
      },
      "tokenByIndex(uint256)": {
        "details": "See {IERC721Enumerable-tokenByIndex}."
      },
      "tokenOfOwnerByIndex(address,uint256)": {
        "details": "See {IERC721Enumerable-tokenOfOwnerByIndex}."
      },
      "totalSupply()": {
        "details": "See {IERC721Enumerable-totalSupply}."
      },
      "transferFrom(address,address,uint256)": {
        "details": "See {IERC721-transferFrom}."
      }
    },
    "version": 1
  },
  "userdoc": {
    "kind": "user",
    "methods": {
      "assetInfo(uint256)": {
        "notice": "The stored information for a given asset"
      },
      "assetURI(uint256)": {
        "notice": "The metadata Uniform Resource Identifier (URI) for a given asset"
      },
      "mint(string,string,uint256,address)": {
        "notice": "Registers an assete for sale in the contract"
      },
      "purchaseLicence(uint256)": {
        "notice": "Creates a licence for caller and sends ETH to NFT owner"
      }
    },
    "version": 1
  }
}