{
  "contractName": "UDALProtocol",
  "abi": [
    {
      "anonymous": false,
      "inputs": [
        {
          "indexed": true,
          "internalType": "address",
          "name": "owner",
          "type": "address"
        },
        {
          "indexed": true,
          "internalType": "address",
          "name": "approved",
          "type": "address"
        },
        {
          "indexed": true,
          "internalType": "uint256",
          "name": "tokenId",
          "type": "uint256"
        }
      ],
      "name": "Approval",
      "type": "event"
    },
    {
      "anonymous": false,
      "inputs": [
        {
          "indexed": true,
          "internalType": "address",
          "name": "owner",
          "type": "address"
        },
        {
          "indexed": true,
          "internalType": "address",
          "name": "operator",
          "type": "address"
        },
        {
          "indexed": false,
          "internalType": "bool",
          "name": "approved",
          "type": "bool"
        }
      ],
      "name": "ApprovalForAll",
      "type": "event"
    },
    {
      "anonymous": false,
      "inputs": [
        {
          "indexed": false,
          "internalType": "string",
          "name": "assetURI",
          "type": "string"
        },
        {
          "indexed": false,
          "internalType": "uint256",
          "name": "amount",
          "type": "uint256"
        }
      ],
      "name": "LicencePurchased",
      "type": "event"
    },
    {
      "anonymous": false,
      "inputs": [
        {
          "indexed": true,
          "internalType": "address",
          "name": "from",
          "type": "address"
        },
        {
          "indexed": true,
          "internalType": "address",
          "name": "to",
          "type": "address"
        },
        {
          "indexed": true,
          "internalType": "uint256",
          "name": "tokenId",
          "type": "uint256"
        }
      ],
      "name": "Transfer",
      "type": "event"
    },
    {
      "inputs": [
        {
          "internalType": "address",
          "name": "to",
          "type": "address"
        },
        {
          "internalType": "uint256",
          "name": "tokenId",
          "type": "uint256"
        }
      ],
      "name": "approve",
      "outputs": [],
      "stateMutability": "nonpayable",
      "type": "function"
    },
    {
      "inputs": [
        {
          "internalType": "address",
          "name": "owner",
          "type": "address"
        }
      ],
      "name": "balanceOf",
      "outputs": [
        {
          "internalType": "uint256",
          "name": "",
          "type": "uint256"
        }
      ],
      "stateMutability": "view",
      "type": "function",
      "constant": true
    },
    {
      "inputs": [
        {
          "internalType": "uint256",
          "name": "tokenId",
          "type": "uint256"
        }
      ],
      "name": "burn",
      "outputs": [],
      "stateMutability": "nonpayable",
      "type": "function"
    },
    {
      "inputs": [
        {
          "internalType": "uint256",
          "name": "tokenId",
          "type": "uint256"
        }
      ],
      "name": "getApproved",
      "outputs": [
        {
          "internalType": "address",
          "name": "",
          "type": "address"
        }
      ],
      "stateMutability": "view",
      "type": "function",
      "constant": true
    },
    {
      "inputs": [
        {
          "internalType": "address",
          "name": "owner",
          "type": "address"
        },
        {
          "internalType": "address",
          "name": "operator",
          "type": "address"
        }
      ],
      "name": "isApprovedForAll",
      "outputs": [
        {
          "internalType": "bool",
          "name": "",
          "type": "bool"
        }
      ],
      "stateMutability": "view",
      "type": "function",
      "constant": true
    },
    {
      "inputs": [],
      "name": "name",
      "outputs": [
        {
          "internalType": "string",
          "name": "",
          "type": "string"
        }
      ],
      "stateMutability": "view",
      "type": "function",
      "constant": true
    },
    {
      "inputs": [
        {
          "internalType": "uint256",
          "name": "tokenId",
          "type": "uint256"
        }
      ],
      "name": "ownerOf",
      "outputs": [
        {
          "internalType": "address",
          "name": "",
          "type": "address"
        }
      ],
      "stateMutability": "view",
      "type": "function",
      "constant": true
    },
    {
      "inputs": [
        {
          "internalType": "address",
          "name": "from",
          "type": "address"
        },
        {
          "internalType": "address",
          "name": "to",
          "type": "address"
        },
        {
          "internalType": "uint256",
          "name": "tokenId",
          "type": "uint256"
        }
      ],
      "name": "safeTransferFrom",
      "outputs": [],
      "stateMutability": "nonpayable",
      "type": "function"
    },
    {
      "inputs": [
        {
          "internalType": "address",
          "name": "from",
          "type": "address"
        },
        {
          "internalType": "address",
          "name": "to",
          "type": "address"
        },
        {
          "internalType": "uint256",
          "name": "tokenId",
          "type": "uint256"
        },
        {
          "internalType": "bytes",
          "name": "_data",
          "type": "bytes"
        }
      ],
      "name": "safeTransferFrom",
      "outputs": [],
      "stateMutability": "nonpayable",
      "type": "function"
    },
    {
      "inputs": [
        {
          "internalType": "address",
          "name": "operator",
          "type": "address"
        },
        {
          "internalType": "bool",
          "name": "approved",
          "type": "bool"
        }
      ],
      "name": "setApprovalForAll",
      "outputs": [],
      "stateMutability": "nonpayable",
      "type": "function"
    },
    {
      "inputs": [],
      "name": "symbol",
      "outputs": [
        {
          "internalType": "string",
          "name": "",
          "type": "string"
        }
      ],
      "stateMutability": "view",
      "type": "function",
      "constant": true
    },
    {
      "inputs": [
        {
          "internalType": "uint256",
          "name": "index",
          "type": "uint256"
        }
      ],
      "name": "tokenByIndex",
      "outputs": [
        {
          "internalType": "uint256",
          "name": "",
          "type": "uint256"
        }
      ],
      "stateMutability": "view",
      "type": "function",
      "constant": true
    },
    {
      "inputs": [
        {
          "internalType": "address",
          "name": "owner",
          "type": "address"
        },
        {
          "internalType": "uint256",
          "name": "index",
          "type": "uint256"
        }
      ],
      "name": "tokenOfOwnerByIndex",
      "outputs": [
        {
          "internalType": "uint256",
          "name": "",
          "type": "uint256"
        }
      ],
      "stateMutability": "view",
      "type": "function",
      "constant": true
    },
    {
      "inputs": [],
      "name": "totalSupply",
      "outputs": [
        {
          "internalType": "uint256",
          "name": "",
          "type": "uint256"
        }
      ],
      "stateMutability": "view",
      "type": "function",
      "constant": true
    },
    {
      "inputs": [
        {
          "internalType": "address",
          "name": "from",
          "type": "address"
        },
        {
          "internalType": "address",
          "name": "to",
          "type": "address"
        },
        {
          "internalType": "uint256",
          "name": "tokenId",
          "type": "uint256"
        }
      ],
      "name": "transferFrom",
      "outputs": [],
      "stateMutability": "nonpayable",
      "type": "function"
    },
    {
      "inputs": [
        {
          "internalType": "string",
          "name": "_tokenURI",
          "type": "string"
        },
        {
          "internalType": "string",
          "name": "_assetURI",
          "type": "string"
        },
        {
          "internalType": "uint256",
          "name": "price",
          "type": "uint256"
        },
        {
          "internalType": "address payable",
          "name": "owner",
          "type": "address"
        }
      ],
      "name": "mint",
      "outputs": [],
      "stateMutability": "nonpayable",
      "type": "function"
    },
    {
      "inputs": [
        {
          "internalType": "uint256",
          "name": "tokenId",
          "type": "uint256"
        }
      ],
      "name": "assetInfo",
      "outputs": [
        {
          "internalType": "address",
          "name": "owner",
          "type": "address"
        },
        {
          "internalType": "uint256",
          "name": "price",
          "type": "uint256"
        }
      ],
      "stateMutability": "view",
      "type": "function",
      "constant": true
    },
    {
      "inputs": [
        {
          "internalType": "uint256",
          "name": "tokenId",
          "type": "uint256"
        }
      ],
      "name": "purchaseLicence",
      "outputs": [],
      "stateMutability": "payable",
      "type": "function",
      "payable": true
    },
    {
      "inputs": [
        {
          "internalType": "uint256",
          "name": "tokenId",
          "type": "uint256"
        }
      ],
      "name": "assetURI",
      "outputs": [
        {
          "internalType": "string",
          "name": "",
          "type": "string"
        }
      ],
      "stateMutability": "view",
      "type": "function",
      "constant": true
    },
    {
      "inputs": [
        {
          "internalType": "uint256",
          "name": "tokenId",
          "type": "uint256"
        }
      ],
      "name": "tokenURI",
      "outputs": [
        {
          "internalType": "string",
          "name": "",
          "type": "string"
        }
      ],
      "stateMutability": "view",
      "type": "function",
      "constant": true
    },
    {
      "inputs": [
        {
          "internalType": "bytes4",
          "name": "interfaceId",
          "type": "bytes4"
        }
      ],
      "name": "supportsInterface",
      "outputs": [
        {
          "internalType": "bool",
          "name": "",
          "type": "bool"
        }
      ],
      "stateMutability": "view",
      "type": "function",
      "constant": true
    }
  ],
  "bytecode": "0x60806040523480156200001157600080fd5b506040518060600160405280602581526020016200424c602591396040518060400160405280600781526020017f5544414c4e46540000000000000000000000000000000000000000000000000081525081600090805190602001906200007a9291906200009c565b508060019080519060200190620000939291906200009c565b505050620001b1565b828054620000aa906200014c565b90600052602060002090601f016020900481019282620000ce57600085556200011a565b82601f10620000e957805160ff19168380011785556200011a565b828001600101855582156200011a579182015b8281111562000119578251825591602001919060010190620000fc565b5b5090506200012991906200012d565b5090565b5b80821115620001485760008160009055506001016200012e565b5090565b600060028204905060018216806200016557607f821691505b602082108114156200017c576200017b62000182565b5b50919050565b7f4e487b7100000000000000000000000000000000000000000000000000000000600052602260045260246000fd5b61408b80620001c16000396000f3fe60806040526004361061012a5760003560e01c80635b794b44116100ab578063a879fcbb1161006f578063a879fcbb14610407578063b88d4fde14610445578063c87b56dd1461046e578063e985e9c5146104ab578063f1c68982146104e8578063f7bc6984146105255761012a565b80635b794b441461031d5780636352211e1461033957806370a082311461037657806395d89b41146103b3578063a22cb465146103de5761012a565b806323b872dd116100f257806323b872dd146102285780632f745c591461025157806342842e0e1461028e57806342966c68146102b75780634f6ccce7146102e05761012a565b806301ffc9a71461012f57806306fdde031461016c578063081812fc14610197578063095ea7b3146101d457806318160ddd146101fd575b600080fd5b34801561013b57600080fd5b5061015660048036038101906101519190612c59565b61054e565b6040516101639190613885565b60405180910390f35b34801561017857600080fd5b50610181610560565b60405161018e91906138a0565b60405180910390f35b3480156101a357600080fd5b506101be60048036038101906101b99190612d46565b6105f2565b6040516101cb91906137f5565b60405180910390f35b3480156101e057600080fd5b506101fb60048036038101906101f69190612c1d565b610677565b005b34801561020957600080fd5b5061021261078f565b60405161021f9190613c12565b60405180910390f35b34801561023457600080fd5b5061024f600480360381019061024a9190612b17565b61079c565b005b34801561025d57600080fd5b5061027860048036038101906102739190612c1d565b6107fc565b6040516102859190613c12565b60405180910390f35b34801561029a57600080fd5b506102b560048036038101906102b09190612b17565b6108a1565b005b3480156102c357600080fd5b506102de60048036038101906102d99190612d46565b6108c1565b005b3480156102ec57600080fd5b5061030760048036038101906103029190612d46565b61091d565b6040516103149190613c12565b60405180910390f35b61033760048036038101906103329190612d46565b6109b4565b005b34801561034557600080fd5b50610360600480360381019061035b9190612d46565b610c02565b60405161036d91906137f5565b60405180910390f35b34801561038257600080fd5b5061039d60048036038101906103989190612ab2565b610cb4565b6040516103aa9190613c12565b60405180910390f35b3480156103bf57600080fd5b506103c8610d6c565b6040516103d591906138a0565b60405180910390f35b3480156103ea57600080fd5b5061040560048036038101906104009190612be1565b610dfe565b005b34801561041357600080fd5b5061042e60048036038101906104299190612d46565b610f7f565b60405161043c92919061385c565b60405180910390f35b34801561045157600080fd5b5061046c60048036038101906104679190612b66565b610ff3565b005b34801561047a57600080fd5b5061049560048036038101906104909190612d46565b611055565b6040516104a291906138a0565b60405180910390f35b3480156104b757600080fd5b506104d260048036038101906104cd9190612adb565b611067565b6040516104df9190613885565b60405180910390f35b3480156104f457600080fd5b5061050f600480360381019061050a9190612d46565b6110fb565b60405161051c91906138a0565b60405180910390f35b34801561053157600080fd5b5061054c60048036038101906105479190612cab565b61128b565b005b600061055982611339565b9050919050565b60606000805461056f90613e69565b80601f016020809104026020016040519081016040528092919081815260200182805461059b90613e69565b80156105e85780601f106105bd576101008083540402835291602001916105e8565b820191906000526020600020905b8154815290600101906020018083116105cb57829003601f168201915b5050505050905090565b60006105fd826113b3565b61063c576040517f08c379a000000000000000000000000000000000000000000000000000000000815260040161063390613af2565b60405180910390fd5b6004600083815260200190815260200160002060009054906101000a900473ffffffffffffffffffffffffffffffffffffffff169050919050565b600061068282610c02565b90508073ffffffffffffffffffffffffffffffffffffffff168373ffffffffffffffffffffffffffffffffffffffff1614156106f3576040517f08c379a00000000000000000000000000000000000000000000000000000000081526004016106ea90613b52565b60405180910390fd5b8073ffffffffffffffffffffffffffffffffffffffff1661071261141f565b73ffffffffffffffffffffffffffffffffffffffff16148061074157506107408161073b61141f565b611067565b5b610780576040517f08c379a000000000000000000000000000000000000000000000000000000000815260040161077790613a12565b60405180910390fd5b61078a8383611427565b505050565b6000600880549050905090565b6107ad6107a761141f565b826114e0565b6107ec576040517f08c379a00000000000000000000000000000000000000000000000000000000081526004016107e390613b72565b60405180910390fd5b6107f78383836115be565b505050565b600061080783610cb4565b8210610848576040517f08c379a000000000000000000000000000000000000000000000000000000000815260040161083f90613912565b60405180910390fd5b600660008473ffffffffffffffffffffffffffffffffffffffff1673ffffffffffffffffffffffffffffffffffffffff168152602001908152602001600020600083815260200190815260200160002054905092915050565b6108bc83838360405180602001604052806000815250610ff3565b505050565b6108d26108cc61141f565b826114e0565b610911576040517f08c379a000000000000000000000000000000000000000000000000000000000815260040161090890613bf2565b60405180910390fd5b61091a8161181a565b50565b600061092761078f565b8210610968576040517f08c379a000000000000000000000000000000000000000000000000000000000815260040161095f90613b92565b60405180910390fd5b600882815481106109a2577f4e487b7100000000000000000000000000000000000000000000000000000000600052603260045260246000fd5b90600052602060002001549050919050565b6109bd816113b3565b6109fc576040517f08c379a00000000000000000000000000000000000000000000000000000000081526004016109f390613972565b60405180910390fd5b600c600082815260200190815260200160002060010154341015610a55576040517f08c379a0000000000000000000000000000000000000000000000000000000008152600401610a4c90613bd2565b60405180910390fd5b600c600082815260200190815260200160002060030160003373ffffffffffffffffffffffffffffffffffffffff1673ffffffffffffffffffffffffffffffffffffffff16815260200190815260200160002060009054906101000a900460ff1615610af6576040517f08c379a0000000000000000000000000000000000000000000000000000000008152600401610aed90613bb2565b60405180910390fd5b610aff81610c02565b73ffffffffffffffffffffffffffffffffffffffff166108fc349081150290604051600060405180830381858888f19350505050158015610b44573d6000803e3d6000fd5b506001600c600083815260200190815260200160002060030160003373ffffffffffffffffffffffffffffffffffffffff1673ffffffffffffffffffffffffffffffffffffffff16815260200190815260200160002060006101000a81548160ff0219169083151502179055507f5370a6767260f237bfcbf13cf74e2b7abd65f354ccddfa385a6e65ae361fae4c600c600083815260200190815260200160002060000134604051610bf79291906138c2565b60405180910390a150565b6000806002600084815260200190815260200160002060009054906101000a900473ffffffffffffffffffffffffffffffffffffffff169050600073ffffffffffffffffffffffffffffffffffffffff168173ffffffffffffffffffffffffffffffffffffffff161415610cab576040517f08c379a0000000000000000000000000000000000000000000000000000000008152600401610ca290613a52565b60405180910390fd5b80915050919050565b60008073ffffffffffffffffffffffffffffffffffffffff168273ffffffffffffffffffffffffffffffffffffffff161415610d25576040517f08c379a0000000000000000000000000000000000000000000000000000000008152600401610d1c90613a32565b60405180910390fd5b600360008373ffffffffffffffffffffffffffffffffffffffff1673ffffffffffffffffffffffffffffffffffffffff168152602001908152602001600020549050919050565b606060018054610d7b90613e69565b80601f0160208091040260200160405190810160405280929190818152602001828054610da790613e69565b8015610df45780601f10610dc957610100808354040283529160200191610df4565b820191906000526020600020905b815481529060010190602001808311610dd757829003601f168201915b5050505050905090565b610e0661141f565b73ffffffffffffffffffffffffffffffffffffffff168273ffffffffffffffffffffffffffffffffffffffff161415610e74576040517f08c379a0000000000000000000000000000000000000000000000000000000008152600401610e6b906139b2565b60405180910390fd5b8060056000610e8161141f565b73ffffffffffffffffffffffffffffffffffffffff1673ffffffffffffffffffffffffffffffffffffffff16815260200190815260200160002060008473ffffffffffffffffffffffffffffffffffffffff1673ffffffffffffffffffffffffffffffffffffffff16815260200190815260200160002060006101000a81548160ff0219169083151502179055508173ffffffffffffffffffffffffffffffffffffffff16610f2e61141f565b73ffffffffffffffffffffffffffffffffffffffff167f17307eab39ab6107e8899845ad3d59bd9653f200f220920489ca2b5937696c3183604051610f739190613885565b60405180910390a35050565b600080610f8b836113b3565b610fca576040517f08c379a0000000000000000000000000000000000000000000000000000000008152600401610fc190613a92565b60405180910390fd5b610fd383610c02565b600c60008581526020019081526020016000206001015491509150915091565b611004610ffe61141f565b836114e0565b611043576040517f08c379a000000000000000000000000000000000000000000000000000000000815260040161103a90613b72565b60405180910390fd5b61104f84848484611826565b50505050565b606061106082611882565b9050919050565b6000600560008473ffffffffffffffffffffffffffffffffffffffff1673ffffffffffffffffffffffffffffffffffffffff16815260200190815260200160002060008373ffffffffffffffffffffffffffffffffffffffff1673ffffffffffffffffffffffffffffffffffffffff16815260200190815260200160002060009054906101000a900460ff16905092915050565b6060611106826113b3565b611145576040517f08c379a000000000000000000000000000000000000000000000000000000000815260040161113c906138f2565b60405180910390fd5b600c600083815260200190815260200160002060030160003373ffffffffffffffffffffffffffffffffffffffff1673ffffffffffffffffffffffffffffffffffffffff16815260200190815260200160002060009054906101000a900460ff166111e5576040517f08c379a00000000000000000000000000000000000000000000000000000000081526004016111dc906139d2565b60405180910390fd5b600c6000838152602001908152602001600020600001805461120690613e69565b80601f016020809104026020016040519081016040528092919081815260200182805461123290613e69565b801561127f5780601f106112545761010080835404028352916020019161127f565b820191906000526020600020905b81548152906001019060200180831161126257829003601f168201915b50505050509050919050565b611295600b6119d4565b60006112a1600b6119ea565b90506000600c6000838152602001908152602001600020905085858260000191906112cd929190612819565b508381600101819055506112e183836119f8565b61132f8289898080601f016020809104026020016040519081016040528093929190818152602001838380828437600081840152601f19601f82011690508083019250505050505050611a16565b5050505050505050565b60007f780e9d63000000000000000000000000000000000000000000000000000000007bffffffffffffffffffffffffffffffffffffffffffffffffffffffff1916827bffffffffffffffffffffffffffffffffffffffffffffffffffffffff191614806113ac57506113ab82611a8a565b5b9050919050565b60008073ffffffffffffffffffffffffffffffffffffffff166002600084815260200190815260200160002060009054906101000a900473ffffffffffffffffffffffffffffffffffffffff1673ffffffffffffffffffffffffffffffffffffffff1614159050919050565b600033905090565b816004600083815260200190815260200160002060006101000a81548173ffffffffffffffffffffffffffffffffffffffff021916908373ffffffffffffffffffffffffffffffffffffffff160217905550808273ffffffffffffffffffffffffffffffffffffffff1661149a83610c02565b73ffffffffffffffffffffffffffffffffffffffff167f8c5be1e5ebec7d5bd14f71427d1e84f3dd0314c0f7b2291e5b200ac8c7c3b92560405160405180910390a45050565b60006114eb826113b3565b61152a576040517f08c379a0000000000000000000000000000000000000000000000000000000008152600401611521906139f2565b60405180910390fd5b600061153583610c02565b90508073ffffffffffffffffffffffffffffffffffffffff168473ffffffffffffffffffffffffffffffffffffffff1614806115a457508373ffffffffffffffffffffffffffffffffffffffff1661158c846105f2565b73ffffffffffffffffffffffffffffffffffffffff16145b806115b557506115b48185611067565b5b91505092915050565b8273ffffffffffffffffffffffffffffffffffffffff166115de82610c02565b73ffffffffffffffffffffffffffffffffffffffff1614611634576040517f08c379a000000000000000000000000000000000000000000000000000000000815260040161162b90613b12565b60405180910390fd5b600073ffffffffffffffffffffffffffffffffffffffff168273ffffffffffffffffffffffffffffffffffffffff1614156116a4576040517f08c379a000000000000000000000000000000000000000000000000000000000815260040161169b90613992565b60405180910390fd5b6116af838383611b6c565b6116ba600082611427565b6001600360008573ffffffffffffffffffffffffffffffffffffffff1673ffffffffffffffffffffffffffffffffffffffff168152602001908152602001600020600082825461170a9190613d6d565b925050819055506001600360008473ffffffffffffffffffffffffffffffffffffffff1673ffffffffffffffffffffffffffffffffffffffff16815260200190815260200160002060008282546117619190613ce6565b92505081905550816002600083815260200190815260200160002060006101000a81548173ffffffffffffffffffffffffffffffffffffffff021916908373ffffffffffffffffffffffffffffffffffffffff160217905550808273ffffffffffffffffffffffffffffffffffffffff168473ffffffffffffffffffffffffffffffffffffffff167fddf252ad1be2c89b69c2b068fc378daa952ba7f163c4a11628f55a4df523b3ef60405160405180910390a4505050565b61182381611b7c565b50565b6118318484846115be565b61183d84848484611bcf565b61187c576040517f08c379a000000000000000000000000000000000000000000000000000000000815260040161187390613932565b60405180910390fd5b50505050565b606061188d826113b3565b6118cc576040517f08c379a00000000000000000000000000000000000000000000000000000000081526004016118c390613ad2565b60405180910390fd5b6000600a600084815260200190815260200160002080546118ec90613e69565b80601f016020809104026020016040519081016040528092919081815260200182805461191890613e69565b80156119655780601f1061193a57610100808354040283529160200191611965565b820191906000526020600020905b81548152906001019060200180831161194857829003601f168201915b505050505090506000611976611d66565b905060008151141561198c5781925050506119cf565b6000825111156119c15780826040516020016119a99291906137d1565b604051602081830303815290604052925050506119cf565b6119ca84611d7d565b925050505b919050565b6001816000016000828254019250508190555050565b600081600001549050919050565b611a12828260405180602001604052806000815250611e24565b5050565b611a1f826113b3565b611a5e576040517f08c379a0000000000000000000000000000000000000000000000000000000008152600401611a5590613a72565b60405180910390fd5b80600a60008481526020019081526020016000209080519060200190611a8592919061289f565b505050565b60007f80ac58cd000000000000000000000000000000000000000000000000000000007bffffffffffffffffffffffffffffffffffffffffffffffffffffffff1916827bffffffffffffffffffffffffffffffffffffffffffffffffffffffff19161480611b5557507f5b5e139f000000000000000000000000000000000000000000000000000000007bffffffffffffffffffffffffffffffffffffffffffffffffffffffff1916827bffffffffffffffffffffffffffffffffffffffffffffffffffffffff1916145b80611b655750611b6482611e7f565b5b9050919050565b611b77838383611ee9565b505050565b611b8581611ffd565b6000600a60008381526020019081526020016000208054611ba590613e69565b905014611bcc57600a60008281526020019081526020016000206000611bcb9190612925565b5b50565b6000611bf08473ffffffffffffffffffffffffffffffffffffffff1661210e565b15611d59578373ffffffffffffffffffffffffffffffffffffffff1663150b7a02611c1961141f565b8786866040518563ffffffff1660e01b8152600401611c3b9493929190613810565b602060405180830381600087803b158015611c5557600080fd5b505af1925050508015611c8657506040513d601f19601f82011682018060405250810190611c839190612c82565b60015b611d09573d8060008114611cb6576040519150601f19603f3d011682016040523d82523d6000602084013e611cbb565b606091505b50600081511415611d01576040517f08c379a0000000000000000000000000000000000000000000000000000000008152600401611cf890613932565b60405180910390fd5b805181602001fd5b63150b7a0260e01b7bffffffffffffffffffffffffffffffffffffffffffffffffffffffff1916817bffffffffffffffffffffffffffffffffffffffffffffffffffffffff191614915050611d5e565b600190505b949350505050565b606060405180602001604052806000815250905090565b6060611d88826113b3565b611dc7576040517f08c379a0000000000000000000000000000000000000000000000000000000008152600401611dbe90613b32565b60405180910390fd5b6000611dd1611d66565b90506000815111611df15760405180602001604052806000815250611e1c565b80611dfb84612121565b604051602001611e0c9291906137d1565b6040516020818303038152906040525b915050919050565b611e2e83836122ce565b611e3b6000848484611bcf565b611e7a576040517f08c379a0000000000000000000000000000000000000000000000000000000008152600401611e7190613932565b60405180910390fd5b505050565b60007f01ffc9a7000000000000000000000000000000000000000000000000000000007bffffffffffffffffffffffffffffffffffffffffffffffffffffffff1916827bffffffffffffffffffffffffffffffffffffffffffffffffffffffff1916149050919050565b611ef483838361249c565b600073ffffffffffffffffffffffffffffffffffffffff168373ffffffffffffffffffffffffffffffffffffffff161415611f3757611f32816124a1565b611f76565b8173ffffffffffffffffffffffffffffffffffffffff168373ffffffffffffffffffffffffffffffffffffffff1614611f7557611f7483826124ea565b5b5b600073ffffffffffffffffffffffffffffffffffffffff168273ffffffffffffffffffffffffffffffffffffffff161415611fb957611fb481612657565b611ff8565b8273ffffffffffffffffffffffffffffffffffffffff168273ffffffffffffffffffffffffffffffffffffffff1614611ff757611ff6828261279a565b5b5b505050565b600061200882610c02565b905061201681600084611b6c565b612021600083611427565b6001600360008373ffffffffffffffffffffffffffffffffffffffff1673ffffffffffffffffffffffffffffffffffffffff16815260200190815260200160002060008282546120719190613d6d565b925050819055506002600083815260200190815260200160002060006101000a81549073ffffffffffffffffffffffffffffffffffffffff021916905581600073ffffffffffffffffffffffffffffffffffffffff168273ffffffffffffffffffffffffffffffffffffffff167fddf252ad1be2c89b69c2b068fc378daa952ba7f163c4a11628f55a4df523b3ef60405160405180910390a45050565b600080823b905060008111915050919050565b60606000821415612169576040518060400160405280600181526020017f300000000000000000000000000000000000000000000000000000000000000081525090506122c9565b600082905060005b6000821461219b57808061218490613e9b565b915050600a826121949190613d3c565b9150612171565b60008167ffffffffffffffff8111156121dd577f4e487b7100000000000000000000000000000000000000000000000000000000600052604160045260246000fd5b6040519080825280601f01601f19166020018201604052801561220f5781602001600182028036833780820191505090505b5090505b600085146122c2576001826122289190613d6d565b9150600a856122379190613ee4565b60306122439190613ce6565b60f81b81838151811061227f577f4e487b7100000000000000000000000000000000000000000000000000000000600052603260045260246000fd5b60200101907effffffffffffffffffffffffffffffffffffffffffffffffffffffffffffff1916908160001a905350600a856122bb9190613d3c565b9450612213565b8093505050505b919050565b600073ffffffffffffffffffffffffffffffffffffffff168273ffffffffffffffffffffffffffffffffffffffff16141561233e576040517f08c379a000000000000000000000000000000000000000000000000000000000815260040161233590613ab2565b60405180910390fd5b612347816113b3565b15612387576040517f08c379a000000000000000000000000000000000000000000000000000000000815260040161237e90613952565b60405180910390fd5b61239360008383611b6c565b6001600360008473ffffffffffffffffffffffffffffffffffffffff1673ffffffffffffffffffffffffffffffffffffffff16815260200190815260200160002060008282546123e39190613ce6565b92505081905550816002600083815260200190815260200160002060006101000a81548173ffffffffffffffffffffffffffffffffffffffff021916908373ffffffffffffffffffffffffffffffffffffffff160217905550808273ffffffffffffffffffffffffffffffffffffffff16600073ffffffffffffffffffffffffffffffffffffffff167fddf252ad1be2c89b69c2b068fc378daa952ba7f163c4a11628f55a4df523b3ef60405160405180910390a45050565b505050565b6008805490506009600083815260200190815260200160002081905550600881908060018154018082558091505060019003906000526020600020016000909190919091505550565b600060016124f784610cb4565b6125019190613d6d565b90506000600760008481526020019081526020016000205490508181146125e6576000600660008673ffffffffffffffffffffffffffffffffffffffff1673ffffffffffffffffffffffffffffffffffffffff168152602001908152602001600020600084815260200190815260200160002054905080600660008773ffffffffffffffffffffffffffffffffffffffff1673ffffffffffffffffffffffffffffffffffffffff168152602001908152602001600020600084815260200190815260200160002081905550816007600083815260200190815260200160002081905550505b6007600084815260200190815260200160002060009055600660008573ffffffffffffffffffffffffffffffffffffffff1673ffffffffffffffffffffffffffffffffffffffff16815260200190815260200160002060008381526020019081526020016000206000905550505050565b6000600160088054905061266b9190613d6d565b90506000600960008481526020019081526020016000205490506000600883815481106126c1577f4e487b7100000000000000000000000000000000000000000000000000000000600052603260045260246000fd5b906000526020600020015490508060088381548110612709577f4e487b7100000000000000000000000000000000000000000000000000000000600052603260045260246000fd5b90600052602060002001819055508160096000838152602001908152602001600020819055506009600085815260200190815260200160002060009055600880548061277e577f4e487b7100000000000000000000000000000000000000000000000000000000600052603160045260246000fd5b6001900381819060005260206000200160009055905550505050565b60006127a583610cb4565b905081600660008573ffffffffffffffffffffffffffffffffffffffff1673ffffffffffffffffffffffffffffffffffffffff168152602001908152602001600020600083815260200190815260200160002081905550806007600084815260200190815260200160002081905550505050565b82805461282590613e69565b90600052602060002090601f016020900481019282612847576000855561288e565b82601f1061286057803560ff191683800117855561288e565b8280016001018555821561288e579182015b8281111561288d578235825591602001919060010190612872565b5b50905061289b9190612965565b5090565b8280546128ab90613e69565b90600052602060002090601f0160209004810192826128cd5760008555612914565b82601f106128e657805160ff1916838001178555612914565b82800160010185558215612914579182015b828111156129135782518255916020019190600101906128f8565b5b5090506129219190612965565b5090565b50805461293190613e69565b6000825580601f106129435750612962565b601f0160209004906000526020600020908101906129619190612965565b5b50565b5b8082111561297e576000816000905550600101612966565b5090565b600061299561299084613c5e565b613c2d565b9050828152602081018484840111156129ad57600080fd5b6129b8848285613e27565b509392505050565b6000813590506129cf81613fe2565b92915050565b6000813590506129e481613ff9565b92915050565b6000813590506129f981614010565b92915050565b600081359050612a0e81614027565b92915050565b600081519050612a2381614027565b92915050565b600082601f830112612a3a57600080fd5b8135612a4a848260208601612982565b91505092915050565b60008083601f840112612a6557600080fd5b8235905067ffffffffffffffff811115612a7e57600080fd5b602083019150836001820283011115612a9657600080fd5b9250929050565b600081359050612aac8161403e565b92915050565b600060208284031215612ac457600080fd5b6000612ad2848285016129c0565b91505092915050565b60008060408385031215612aee57600080fd5b6000612afc858286016129c0565b9250506020612b0d858286016129c0565b9150509250929050565b600080600060608486031215612b2c57600080fd5b6000612b3a868287016129c0565b9350506020612b4b868287016129c0565b9250506040612b5c86828701612a9d565b9150509250925092565b60008060008060808587031215612b7c57600080fd5b6000612b8a878288016129c0565b9450506020612b9b878288016129c0565b9350506040612bac87828801612a9d565b925050606085013567ffffffffffffffff811115612bc957600080fd5b612bd587828801612a29565b91505092959194509250565b60008060408385031215612bf457600080fd5b6000612c02858286016129c0565b9250506020612c13858286016129ea565b9150509250929050565b60008060408385031215612c3057600080fd5b6000612c3e858286016129c0565b9250506020612c4f85828601612a9d565b9150509250929050565b600060208284031215612c6b57600080fd5b6000612c79848285016129ff565b91505092915050565b600060208284031215612c9457600080fd5b6000612ca284828501612a14565b91505092915050565b60008060008060008060808789031215612cc457600080fd5b600087013567ffffffffffffffff811115612cde57600080fd5b612cea89828a01612a53565b9650965050602087013567ffffffffffffffff811115612d0957600080fd5b612d1589828a01612a53565b94509450506040612d2889828a01612a9d565b9250506060612d3989828a016129d5565b9150509295509295509295565b600060208284031215612d5857600080fd5b6000612d6684828501612a9d565b91505092915050565b612d7881613da1565b82525050565b612d8781613dc5565b82525050565b6000612d9882613ca3565b612da28185613cb9565b9350612db2818560208601613e36565b612dbb81613fd1565b840191505092915050565b6000612dd182613cae565b612ddb8185613cca565b9350612deb818560208601613e36565b612df481613fd1565b840191505092915050565b6000612e0a82613cae565b612e148185613cdb565b9350612e24818560208601613e36565b80840191505092915050565b60008154612e3d81613e69565b612e478186613cca565b94506001821660008114612e625760018114612e7457612ea7565b60ff1983168652602086019350612ea7565b612e7d85613c8e565b60005b83811015612e9f57815481890152600182019150602081019050612e80565b808801955050505b50505092915050565b6000612ebd602683613cca565b91507f617373657455524920717565727920666f72206e6f6e6578697374656e74207460008301527f6f6b656e496400000000000000000000000000000000000000000000000000006020830152604082019050919050565b6000612f23602b83613cca565b91507f455243373231456e756d657261626c653a206f776e657220696e646578206f7560008301527f74206f6620626f756e64730000000000000000000000000000000000000000006020830152604082019050919050565b6000612f89603283613cca565b91507f4552433732313a207472616e7366657220746f206e6f6e20455243373231526560008301527f63656976657220696d706c656d656e74657200000000000000000000000000006020830152604082019050919050565b6000612fef601c83613cca565b91507f4552433732313a20746f6b656e20616c7265616479206d696e746564000000006000830152602082019050919050565b600061302f602d83613cca565b91507f70757263686173654c6963656e636520717565727920666f72206e6f6e65786960008301527f7374656e7420746f6b656e4964000000000000000000000000000000000000006020830152604082019050919050565b6000613095602483613cca565b91507f4552433732313a207472616e7366657220746f20746865207a65726f2061646460008301527f72657373000000000000000000000000000000000000000000000000000000006020830152604082019050919050565b60006130fb601983613cca565b91507f4552433732313a20617070726f766520746f2063616c6c6572000000000000006000830152602082019050919050565b600061313b601683613cca565b91507f486173206e6f74206265656e20707572636861736564000000000000000000006000830152602082019050919050565b600061317b602c83613cca565b91507f4552433732313a206f70657261746f7220717565727920666f72206e6f6e657860008301527f697374656e7420746f6b656e00000000000000000000000000000000000000006020830152604082019050919050565b60006131e1603883613cca565b91507f4552433732313a20617070726f76652063616c6c6572206973206e6f74206f7760008301527f6e6572206e6f7220617070726f76656420666f7220616c6c00000000000000006020830152604082019050919050565b6000613247602a83613cca565b91507f4552433732313a2062616c616e636520717565727920666f7220746865207a6560008301527f726f2061646472657373000000000000000000000000000000000000000000006020830152604082019050919050565b60006132ad602983613cca565b91507f4552433732313a206f776e657220717565727920666f72206e6f6e657869737460008301527f656e7420746f6b656e00000000000000000000000000000000000000000000006020830152604082019050919050565b6000613313602e83613cca565b91507f45524337323155524953746f726167653a2055524920736574206f66206e6f6e60008301527f6578697374656e7420746f6b656e0000000000000000000000000000000000006020830152604082019050919050565b6000613379602783613cca565b91507f6173736574496e666f20717565727920666f72206e6f6e6578697374656e742060008301527f746f6b656e4964000000000000000000000000000000000000000000000000006020830152604082019050919050565b60006133df602083613cca565b91507f4552433732313a206d696e7420746f20746865207a65726f20616464726573736000830152602082019050919050565b600061341f603183613cca565b91507f45524337323155524953746f726167653a2055524920717565727920666f722060008301527f6e6f6e6578697374656e7420746f6b656e0000000000000000000000000000006020830152604082019050919050565b6000613485602c83613cca565b91507f4552433732313a20617070726f76656420717565727920666f72206e6f6e657860008301527f697374656e7420746f6b656e00000000000000000000000000000000000000006020830152604082019050919050565b60006134eb602983613cca565b91507f4552433732313a207472616e73666572206f6620746f6b656e2074686174206960008301527f73206e6f74206f776e00000000000000000000000000000000000000000000006020830152604082019050919050565b6000613551602f83613cca565b91507f4552433732314d657461646174613a2055524920717565727920666f72206e6f60008301527f6e6578697374656e7420746f6b656e00000000000000000000000000000000006020830152604082019050919050565b60006135b7602183613cca565b91507f4552433732313a20617070726f76616c20746f2063757272656e74206f776e6560008301527f72000000000000000000000000000000000000000000000000000000000000006020830152604082019050919050565b600061361d603183613cca565b91507f4552433732313a207472616e736665722063616c6c6572206973206e6f74206f60008301527f776e6572206e6f7220617070726f7665640000000000000000000000000000006020830152604082019050919050565b6000613683602c83613cca565b91507f455243373231456e756d657261626c653a20676c6f62616c20696e646578206f60008301527f7574206f6620626f756e647300000000000000000000000000000000000000006020830152604082019050919050565b60006136e9601983613cca565b91507f4c6963656e636520616c726561647920707572636861736564000000000000006000830152602082019050919050565b6000613729601a83613cca565b91507f4e6f7420656e6f7567682045746820746f2070757263686173650000000000006000830152602082019050919050565b6000613769603083613cca565b91507f4552433732314275726e61626c653a2063616c6c6572206973206e6f74206f7760008301527f6e6572206e6f7220617070726f766564000000000000000000000000000000006020830152604082019050919050565b6137cb81613e1d565b82525050565b60006137dd8285612dff565b91506137e98284612dff565b91508190509392505050565b600060208201905061380a6000830184612d6f565b92915050565b60006080820190506138256000830187612d6f565b6138326020830186612d6f565b61383f60408301856137c2565b81810360608301526138518184612d8d565b905095945050505050565b60006040820190506138716000830185612d6f565b61387e60208301846137c2565b9392505050565b600060208201905061389a6000830184612d7e565b92915050565b600060208201905081810360008301526138ba8184612dc6565b905092915050565b600060408201905081810360008301526138dc8185612e30565b90506138eb60208301846137c2565b9392505050565b6000602082019050818103600083015261390b81612eb0565b9050919050565b6000602082019050818103600083015261392b81612f16565b9050919050565b6000602082019050818103600083015261394b81612f7c565b9050919050565b6000602082019050818103600083015261396b81612fe2565b9050919050565b6000602082019050818103600083015261398b81613022565b9050919050565b600060208201905081810360008301526139ab81613088565b9050919050565b600060208201905081810360008301526139cb816130ee565b9050919050565b600060208201905081810360008301526139eb8161312e565b9050919050565b60006020820190508181036000830152613a0b8161316e565b9050919050565b60006020820190508181036000830152613a2b816131d4565b9050919050565b60006020820190508181036000830152613a4b8161323a565b9050919050565b60006020820190508181036000830152613a6b816132a0565b9050919050565b60006020820190508181036000830152613a8b81613306565b9050919050565b60006020820190508181036000830152613aab8161336c565b9050919050565b60006020820190508181036000830152613acb816133d2565b9050919050565b60006020820190508181036000830152613aeb81613412565b9050919050565b60006020820190508181036000830152613b0b81613478565b9050919050565b60006020820190508181036000830152613b2b816134de565b9050919050565b60006020820190508181036000830152613b4b81613544565b9050919050565b60006020820190508181036000830152613b6b816135aa565b9050919050565b60006020820190508181036000830152613b8b81613610565b9050919050565b60006020820190508181036000830152613bab81613676565b9050919050565b60006020820190508181036000830152613bcb816136dc565b9050919050565b60006020820190508181036000830152613beb8161371c565b9050919050565b60006020820190508181036000830152613c0b8161375c565b9050919050565b6000602082019050613c2760008301846137c2565b92915050565b6000604051905081810181811067ffffffffffffffff82111715613c5457613c53613fa2565b5b8060405250919050565b600067ffffffffffffffff821115613c7957613c78613fa2565b5b601f19601f8301169050602081019050919050565b60008190508160005260206000209050919050565b600081519050919050565b600081519050919050565b600082825260208201905092915050565b600082825260208201905092915050565b600081905092915050565b6000613cf182613e1d565b9150613cfc83613e1d565b9250827fffffffffffffffffffffffffffffffffffffffffffffffffffffffffffffffff03821115613d3157613d30613f15565b5b828201905092915050565b6000613d4782613e1d565b9150613d5283613e1d565b925082613d6257613d61613f44565b5b828204905092915050565b6000613d7882613e1d565b9150613d8383613e1d565b925082821015613d9657613d95613f15565b5b828203905092915050565b6000613dac82613dfd565b9050919050565b6000613dbe82613dfd565b9050919050565b60008115159050919050565b60007fffffffff0000000000000000000000000000000000000000000000000000000082169050919050565b600073ffffffffffffffffffffffffffffffffffffffff82169050919050565b6000819050919050565b82818337600083830152505050565b60005b83811015613e54578082015181840152602081019050613e39565b83811115613e63576000848401525b50505050565b60006002820490506001821680613e8157607f821691505b60208210811415613e9557613e94613f73565b5b50919050565b6000613ea682613e1d565b91507fffffffffffffffffffffffffffffffffffffffffffffffffffffffffffffffff821415613ed957613ed8613f15565b5b600182019050919050565b6000613eef82613e1d565b9150613efa83613e1d565b925082613f0a57613f09613f44565b5b828206905092915050565b7f4e487b7100000000000000000000000000000000000000000000000000000000600052601160045260246000fd5b7f4e487b7100000000000000000000000000000000000000000000000000000000600052601260045260246000fd5b7f4e487b7100000000000000000000000000000000000000000000000000000000600052602260045260246000fd5b7f4e487b7100000000000000000000000000000000000000000000000000000000600052604160045260246000fd5b6000601f19601f8301169050919050565b613feb81613da1565b8114613ff657600080fd5b50565b61400281613db3565b811461400d57600080fd5b50565b61401981613dc5565b811461402457600080fd5b50565b61403081613dd1565b811461403b57600080fd5b50565b61404781613e1d565b811461405257600080fd5b5056fea264697066735822122031b9e8a5c49215d08c0feaba45effcd6634ad640d3815dc47923fdc980be1b1064736f6c63430008000033556e6976657273616c204469676974616c204173736574204c6963656e63696e67204e4654",
  "immutableReferences": {},
  "source": "// SPDX-License-Identifier: MIT\npragma solidity ^0.8.0;\n\nimport \"@openzeppelin/contracts/token/ERC721/ERC721.sol\";\nimport \"@openzeppelin/contracts/token/ERC721/extensions/ERC721Enumerable.sol\";\nimport \"@openzeppelin/contracts/token/ERC721/extensions/ERC721Burnable.sol\";\nimport \"@openzeppelin/contracts/token/ERC721/extensions/ERC721URIStorage.sol\";\nimport \"@openzeppelin/contracts/utils/Counters.sol\";\n\ncontract UDALProtocol is ERC721(\"Universal Digital Asset Licencing NFT\", \"UDALNFT\"), ERC721Enumerable, ERC721Burnable, ERC721URIStorage {\n  using Counters for Counters.Counter;\n  Counters.Counter private _counter;\n\n  struct AssetInfo {\n      string assetURI;\n      uint256 price;    // Price in wei\n      uint256 purchasedLicenceCounter;\n      mapping(address => bool) purchasedLicences;\n  }\n\n  mapping(uint256 => AssetInfo) private _assetInfo;\n\n  event LicencePurchased(string assetURI, uint256 amount);\n\n  /// @notice Registers an assete for sale in the contract\n  /// @dev tokenURI and assetURI should have prefix http, https, ipfs or ar.  For example, use ar://MAVgEMO3qlqe-qHNVs00qgwwbCb6FY2k15vJP3gBLW4 \n  ///      instead of https://arweave.net/MAVgEMO3qlqe-qHNVs00qgwwbCb6FY2k15vJP3gBLW4.  Emits Created with ID of asset when completed.\n  /// @param _tokenURI URI of the json file containing the metadata in JSON format.  Should conform to the ERC721 Metadata JSON Schema\n  /// @param _assetURI URI of the full size file the licence would be purchased for.\n  /// @param price To purchase a licence\n  /// @param owner The address of the copyright owner\n  function mint (string calldata _tokenURI, string calldata _assetURI, uint256 price, address payable owner) external {\n    _counter.increment();\n    uint256 newTokenId = _counter.current();\n    AssetInfo storage newAssetInfo = _assetInfo[newTokenId];\n    newAssetInfo.assetURI = _assetURI;\n    newAssetInfo.price = price;\n    _safeMint(owner, newTokenId);\n    _setTokenURI (newTokenId, _tokenURI);\n  }\n\n  /// @notice The stored information for a given asset\n  /// @dev Throws if asset with ID is not valid\n  /// @param tokenId Id of the asset\n  /// @return owner of the asset\n  /// @return price of the asset in wei\n  function assetInfo (uint256 tokenId) external view returns (address owner, uint256 price) {\n    require(_exists(tokenId), \"assetInfo query for nonexistent tokenId\");\n    return (ownerOf(tokenId), _assetInfo[tokenId].price);\n  } \n\n  /// @notice Creates a licence for caller and sends ETH to NFT owner\n  /// @dev Throws if ETH sent with contract is less than price\n  /// @param tokenId Id of the asset to purchase\n  function purchaseLicence(uint256 tokenId) external payable {\n      require(_exists(tokenId), \"purchaseLicence query for nonexistent tokenId\");\n      require (msg.value >= _assetInfo[tokenId].price, \"Not enough Eth to purchase\");\n      require (!_assetInfo[tokenId].purchasedLicences[msg.sender], \"Licence already purchased\");\n\n      payable(ownerOf(tokenId)).transfer(msg.value);\n      _assetInfo[tokenId].purchasedLicences[msg.sender] = true;\n      emit LicencePurchased(_assetInfo[tokenId].assetURI, msg.value);\n  }\n\n  /// @notice The metadata Uniform Resource Identifier (URI) for a given asset\n  /// @dev Throws if asset with ID is not valid. Also throws if the caller hasn't purchased the asset ID.\n  /// @param tokenId Id of the asset\n  /// @return assetURI of the fill size asset\n  function assetURI(uint256 tokenId) external view returns (string memory) {\n    require(_exists(tokenId), \"assetURI query for nonexistent tokenId\");\n    require(_assetInfo[tokenId].purchasedLicences[msg.sender], \"Has not been purchased\");\n    return _assetInfo[tokenId].assetURI;\n  }\n\n  // @notice Conforms to the ERC721 metadata extension - https://eips.ethereum.org/EIPS/eip-721\n  function tokenURI(uint256 tokenId) public view override(ERC721, ERC721URIStorage) returns (string memory) {\n    return super.tokenURI(tokenId);\n  }\n\n  // As ERC721, ERC721Enumerable, and include _beforeTokenTransfer we need to override all\n  function _beforeTokenTransfer(address from, address to, uint256 amount) internal override(ERC721, ERC721Enumerable) {\n    super._beforeTokenTransfer(from, to, amount);\n  }\n\n  // As ERC721 and ERC721Enumerable include supportsInterface we need to override both.\n  function supportsInterface(bytes4 interfaceId) public view override(ERC721, ERC721Enumerable) returns (bool) {\n        return super.supportsInterface(interfaceId);\n  }\n\n  // As ERC721 and ERC721URIStorage include supportsInterface we need to override both.\n  function _burn(uint256 tokenId) internal override (ERC721, ERC721URIStorage)  {\n    super._burn(tokenId);\n  }\n}\n",
  "sourcePath": "/home/james/playground/blockchain-developer-bootcamp-final-project/contracts/UDALProtocol.sol",
  "compiler": {
    "name": "solc",
    "version": "0.8.0+commit.c7dfd78e.Emscripten.clang"
  },
  "schemaVersion": "3.4.3",
  "updatedAt": "2021-10-16T15:46:35.989Z",
  "networkType": "ethereum",
  "devdoc": {
    "kind": "dev",
    "methods": {
      "approve(address,uint256)": {
        "details": "See {IERC721-approve}."
      },
      "assetInfo(uint256)": {
        "details": "Throws if asset with ID is not valid",
        "params": {
          "tokenId": "Id of the asset"
        },
        "returns": {
          "owner": "of the asset",
          "price": "of the asset in wei"
        }
      },
      "assetURI(uint256)": {
        "details": "Throws if asset with ID is not valid. Also throws if the caller hasn't purchased the asset ID.",
        "params": {
          "tokenId": "Id of the asset"
        },
        "returns": {
          "_0": "assetURI of the fill size asset"
        }
      },
      "balanceOf(address)": {
        "details": "See {IERC721-balanceOf}."
      },
      "burn(uint256)": {
        "details": "Burns `tokenId`. See {ERC721-_burn}. Requirements: - The caller must own `tokenId` or be an approved operator."
      },
      "getApproved(uint256)": {
        "details": "See {IERC721-getApproved}."
      },
      "isApprovedForAll(address,address)": {
        "details": "See {IERC721-isApprovedForAll}."
      },
      "mint(string,string,uint256,address)": {
        "details": "tokenURI and assetURI should have prefix http, https, ipfs or ar.  For example, use ar://MAVgEMO3qlqe-qHNVs00qgwwbCb6FY2k15vJP3gBLW4       instead of https://arweave.net/MAVgEMO3qlqe-qHNVs00qgwwbCb6FY2k15vJP3gBLW4.  Emits Created with ID of asset when completed.",
        "params": {
          "_assetURI": "URI of the full size file the licence would be purchased for.",
          "_tokenURI": "URI of the json file containing the metadata in JSON format.  Should conform to the ERC721 Metadata JSON Schema",
          "owner": "The address of the copyright owner",
          "price": "To purchase a licence"
        }
      },
      "name()": {
        "details": "See {IERC721Metadata-name}."
      },
      "ownerOf(uint256)": {
        "details": "See {IERC721-ownerOf}."
      },
      "purchaseLicence(uint256)": {
        "details": "Throws if ETH sent with contract is less than price",
        "params": {
          "tokenId": "Id of the asset to purchase"
        }
      },
      "safeTransferFrom(address,address,uint256)": {
        "details": "See {IERC721-safeTransferFrom}."
      },
      "safeTransferFrom(address,address,uint256,bytes)": {
        "details": "See {IERC721-safeTransferFrom}."
      },
      "setApprovalForAll(address,bool)": {
        "details": "See {IERC721-setApprovalForAll}."
      },
      "symbol()": {
        "details": "See {IERC721Metadata-symbol}."
      },
      "tokenByIndex(uint256)": {
        "details": "See {IERC721Enumerable-tokenByIndex}."
      },
      "tokenOfOwnerByIndex(address,uint256)": {
        "details": "See {IERC721Enumerable-tokenOfOwnerByIndex}."
      },
      "totalSupply()": {
        "details": "See {IERC721Enumerable-totalSupply}."
      },
      "transferFrom(address,address,uint256)": {
        "details": "See {IERC721-transferFrom}."
      }
    },
    "version": 1
  },
  "userdoc": {
    "kind": "user",
    "methods": {
      "assetInfo(uint256)": {
        "notice": "The stored information for a given asset"
      },
      "assetURI(uint256)": {
        "notice": "The metadata Uniform Resource Identifier (URI) for a given asset"
      },
      "mint(string,string,uint256,address)": {
        "notice": "Registers an assete for sale in the contract"
      },
      "purchaseLicence(uint256)": {
        "notice": "Creates a licence for caller and sends ETH to NFT owner"
      }
    },
    "version": 1
  }
}