{
  "contractName": "UDALProtocol",
  "abi": [
    {
      "anonymous": false,
      "inputs": [
        {
          "indexed": true,
          "internalType": "address",
          "name": "owner",
          "type": "address"
        },
        {
          "indexed": true,
          "internalType": "address",
          "name": "approved",
          "type": "address"
        },
        {
          "indexed": true,
          "internalType": "uint256",
          "name": "tokenId",
          "type": "uint256"
        }
      ],
      "name": "Approval",
      "type": "event"
    },
    {
      "anonymous": false,
      "inputs": [
        {
          "indexed": true,
          "internalType": "address",
          "name": "owner",
          "type": "address"
        },
        {
          "indexed": true,
          "internalType": "address",
          "name": "operator",
          "type": "address"
        },
        {
          "indexed": false,
          "internalType": "bool",
          "name": "approved",
          "type": "bool"
        }
      ],
      "name": "ApprovalForAll",
      "type": "event"
    },
    {
      "anonymous": false,
      "inputs": [
        {
          "indexed": false,
          "internalType": "string",
          "name": "assetURI",
          "type": "string"
        },
        {
          "indexed": false,
          "internalType": "uint256",
          "name": "amount",
          "type": "uint256"
        }
      ],
      "name": "LicencePurchased",
      "type": "event"
    },
    {
      "anonymous": false,
      "inputs": [
        {
          "indexed": false,
          "internalType": "address",
          "name": "account",
          "type": "address"
        }
      ],
      "name": "Paused",
      "type": "event"
    },
    {
      "anonymous": false,
      "inputs": [
        {
          "indexed": true,
          "internalType": "address",
          "name": "from",
          "type": "address"
        },
        {
          "indexed": true,
          "internalType": "address",
          "name": "to",
          "type": "address"
        },
        {
          "indexed": true,
          "internalType": "uint256",
          "name": "tokenId",
          "type": "uint256"
        }
      ],
      "name": "Transfer",
      "type": "event"
    },
    {
      "anonymous": false,
      "inputs": [
        {
          "indexed": false,
          "internalType": "address",
          "name": "account",
          "type": "address"
        }
      ],
      "name": "Unpaused",
      "type": "event"
    },
    {
      "inputs": [
        {
          "internalType": "address",
          "name": "to",
          "type": "address"
        },
        {
          "internalType": "uint256",
          "name": "tokenId",
          "type": "uint256"
        }
      ],
      "name": "approve",
      "outputs": [],
      "stateMutability": "nonpayable",
      "type": "function"
    },
    {
      "inputs": [
        {
          "internalType": "address",
          "name": "owner",
          "type": "address"
        }
      ],
      "name": "balanceOf",
      "outputs": [
        {
          "internalType": "uint256",
          "name": "",
          "type": "uint256"
        }
      ],
      "stateMutability": "view",
      "type": "function"
    },
    {
      "inputs": [
        {
          "internalType": "uint256",
          "name": "tokenId",
          "type": "uint256"
        }
      ],
      "name": "burn",
      "outputs": [],
      "stateMutability": "nonpayable",
      "type": "function"
    },
    {
      "inputs": [
        {
          "internalType": "uint256",
          "name": "tokenId",
          "type": "uint256"
        }
      ],
      "name": "getApproved",
      "outputs": [
        {
          "internalType": "address",
          "name": "",
          "type": "address"
        }
      ],
      "stateMutability": "view",
      "type": "function"
    },
    {
      "inputs": [
        {
          "internalType": "address",
          "name": "owner",
          "type": "address"
        },
        {
          "internalType": "address",
          "name": "operator",
          "type": "address"
        }
      ],
      "name": "isApprovedForAll",
      "outputs": [
        {
          "internalType": "bool",
          "name": "",
          "type": "bool"
        }
      ],
      "stateMutability": "view",
      "type": "function"
    },
    {
      "inputs": [],
      "name": "name",
      "outputs": [
        {
          "internalType": "string",
          "name": "",
          "type": "string"
        }
      ],
      "stateMutability": "view",
      "type": "function"
    },
    {
      "inputs": [
        {
          "internalType": "uint256",
          "name": "tokenId",
          "type": "uint256"
        }
      ],
      "name": "ownerOf",
      "outputs": [
        {
          "internalType": "address",
          "name": "",
          "type": "address"
        }
      ],
      "stateMutability": "view",
      "type": "function"
    },
    {
      "inputs": [],
      "name": "paused",
      "outputs": [
        {
          "internalType": "bool",
          "name": "",
          "type": "bool"
        }
      ],
      "stateMutability": "view",
      "type": "function"
    },
    {
      "inputs": [
        {
          "internalType": "address",
          "name": "from",
          "type": "address"
        },
        {
          "internalType": "address",
          "name": "to",
          "type": "address"
        },
        {
          "internalType": "uint256",
          "name": "tokenId",
          "type": "uint256"
        }
      ],
      "name": "safeTransferFrom",
      "outputs": [],
      "stateMutability": "nonpayable",
      "type": "function"
    },
    {
      "inputs": [
        {
          "internalType": "address",
          "name": "from",
          "type": "address"
        },
        {
          "internalType": "address",
          "name": "to",
          "type": "address"
        },
        {
          "internalType": "uint256",
          "name": "tokenId",
          "type": "uint256"
        },
        {
          "internalType": "bytes",
          "name": "_data",
          "type": "bytes"
        }
      ],
      "name": "safeTransferFrom",
      "outputs": [],
      "stateMutability": "nonpayable",
      "type": "function"
    },
    {
      "inputs": [
        {
          "internalType": "address",
          "name": "operator",
          "type": "address"
        },
        {
          "internalType": "bool",
          "name": "approved",
          "type": "bool"
        }
      ],
      "name": "setApprovalForAll",
      "outputs": [],
      "stateMutability": "nonpayable",
      "type": "function"
    },
    {
      "inputs": [],
      "name": "symbol",
      "outputs": [
        {
          "internalType": "string",
          "name": "",
          "type": "string"
        }
      ],
      "stateMutability": "view",
      "type": "function"
    },
    {
      "inputs": [
        {
          "internalType": "uint256",
          "name": "index",
          "type": "uint256"
        }
      ],
      "name": "tokenByIndex",
      "outputs": [
        {
          "internalType": "uint256",
          "name": "",
          "type": "uint256"
        }
      ],
      "stateMutability": "view",
      "type": "function"
    },
    {
      "inputs": [
        {
          "internalType": "address",
          "name": "owner",
          "type": "address"
        },
        {
          "internalType": "uint256",
          "name": "index",
          "type": "uint256"
        }
      ],
      "name": "tokenOfOwnerByIndex",
      "outputs": [
        {
          "internalType": "uint256",
          "name": "",
          "type": "uint256"
        }
      ],
      "stateMutability": "view",
      "type": "function"
    },
    {
      "inputs": [],
      "name": "totalSupply",
      "outputs": [
        {
          "internalType": "uint256",
          "name": "",
          "type": "uint256"
        }
      ],
      "stateMutability": "view",
      "type": "function"
    },
    {
      "inputs": [
        {
          "internalType": "address",
          "name": "from",
          "type": "address"
        },
        {
          "internalType": "address",
          "name": "to",
          "type": "address"
        },
        {
          "internalType": "uint256",
          "name": "tokenId",
          "type": "uint256"
        }
      ],
      "name": "transferFrom",
      "outputs": [],
      "stateMutability": "nonpayable",
      "type": "function"
    },
    {
      "inputs": [
        {
          "internalType": "string",
          "name": "_tokenURI",
          "type": "string"
        },
        {
          "internalType": "string",
          "name": "_assetURI",
          "type": "string"
        },
        {
          "internalType": "uint256",
          "name": "price",
          "type": "uint256"
        },
        {
          "internalType": "address payable",
          "name": "owner",
          "type": "address"
        }
      ],
      "name": "mint",
      "outputs": [],
      "stateMutability": "nonpayable",
      "type": "function"
    },
    {
      "inputs": [
        {
          "internalType": "uint256",
          "name": "tokenId",
          "type": "uint256"
        }
      ],
      "name": "assetInfo",
      "outputs": [
        {
          "internalType": "address",
          "name": "owner",
          "type": "address"
        },
        {
          "internalType": "uint256",
          "name": "price",
          "type": "uint256"
        }
      ],
      "stateMutability": "view",
      "type": "function"
    },
    {
      "inputs": [
        {
          "internalType": "uint256",
          "name": "tokenId",
          "type": "uint256"
        }
      ],
      "name": "purchaseLicence",
      "outputs": [],
      "stateMutability": "payable",
      "type": "function"
    },
    {
      "inputs": [
        {
          "internalType": "uint256",
          "name": "tokenId",
          "type": "uint256"
        }
      ],
      "name": "assetURI",
      "outputs": [
        {
          "internalType": "string",
          "name": "",
          "type": "string"
        }
      ],
      "stateMutability": "view",
      "type": "function"
    },
    {
      "inputs": [
        {
          "internalType": "uint256",
          "name": "tokenId",
          "type": "uint256"
        }
      ],
      "name": "tokenURI",
      "outputs": [
        {
          "internalType": "string",
          "name": "",
          "type": "string"
        }
      ],
      "stateMutability": "view",
      "type": "function"
    },
    {
      "inputs": [
        {
          "internalType": "bytes4",
          "name": "interfaceId",
          "type": "bytes4"
        }
      ],
      "name": "supportsInterface",
      "outputs": [
        {
          "internalType": "bool",
          "name": "",
          "type": "bool"
        }
      ],
      "stateMutability": "view",
      "type": "function"
    }
  ],
  "bytecode": "0x60806040523480156200001157600080fd5b5060405180606001604052806025815260200162004392602591396040518060400160405280600781526020017f5544414c4e46540000000000000000000000000000000000000000000000000081525081600090805190602001906200007a929190620000b7565b50806001908051906020019062000093929190620000b7565b5050506000600a60006101000a81548160ff021916908315150217905550620001cc565b828054620000c59062000167565b90600052602060002090601f016020900481019282620000e9576000855562000135565b82601f106200010457805160ff191683800117855562000135565b8280016001018555821562000135579182015b828111156200013457825182559160200191906001019062000117565b5b50905062000144919062000148565b5090565b5b808211156200016357600081600090555060010162000149565b5090565b600060028204905060018216806200018057607f821691505b602082108114156200019757620001966200019d565b5b50919050565b7f4e487b7100000000000000000000000000000000000000000000000000000000600052602260045260246000fd5b6141b680620001dc6000396000f3fe6080604052600436106101355760003560e01c80635c975abb116100ab578063a879fcbb1161006f578063a879fcbb1461043d578063b88d4fde1461047b578063c87b56dd146104a4578063e985e9c5146104e1578063f1c689821461051e578063f7bc69841461055b57610135565b80635c975abb146103445780636352211e1461036f57806370a08231146103ac57806395d89b41146103e9578063a22cb4651461041457610135565b806323b872dd116100fd57806323b872dd146102335780632f745c591461025c57806342842e0e1461029957806342966c68146102c25780634f6ccce7146102eb5780635b794b441461032857610135565b806301ffc9a71461013a57806306fdde0314610177578063081812fc146101a2578063095ea7b3146101df57806318160ddd14610208575b600080fd5b34801561014657600080fd5b50610161600480360381019061015c9190612cfe565b610584565b60405161016e9190613990565b60405180910390f35b34801561018357600080fd5b5061018c610596565b60405161019991906139ab565b60405180910390f35b3480156101ae57600080fd5b506101c960048036038101906101c49190612deb565b610628565b6040516101d69190613900565b60405180910390f35b3480156101eb57600080fd5b5061020660048036038101906102019190612cc2565b6106ad565b005b34801561021457600080fd5b5061021d6107c5565b60405161022a9190613d3d565b60405180910390f35b34801561023f57600080fd5b5061025a60048036038101906102559190612bbc565b6107d2565b005b34801561026857600080fd5b50610283600480360381019061027e9190612cc2565b610832565b6040516102909190613d3d565b60405180910390f35b3480156102a557600080fd5b506102c060048036038101906102bb9190612bbc565b6108d7565b005b3480156102ce57600080fd5b506102e960048036038101906102e49190612deb565b6108f7565b005b3480156102f757600080fd5b50610312600480360381019061030d9190612deb565b610953565b60405161031f9190613d3d565b60405180910390f35b610342600480360381019061033d9190612deb565b6109ea565b005b34801561035057600080fd5b50610359610c38565b6040516103669190613990565b60405180910390f35b34801561037b57600080fd5b5061039660048036038101906103919190612deb565b610c4f565b6040516103a39190613900565b60405180910390f35b3480156103b857600080fd5b506103d360048036038101906103ce9190612b57565b610d01565b6040516103e09190613d3d565b60405180910390f35b3480156103f557600080fd5b506103fe610db9565b60405161040b91906139ab565b60405180910390f35b34801561042057600080fd5b5061043b60048036038101906104369190612c86565b610e4b565b005b34801561044957600080fd5b50610464600480360381019061045f9190612deb565b610fcc565b604051610472929190613967565b60405180910390f35b34801561048757600080fd5b506104a2600480360381019061049d9190612c0b565b611040565b005b3480156104b057600080fd5b506104cb60048036038101906104c69190612deb565b6110a2565b6040516104d891906139ab565b60405180910390f35b3480156104ed57600080fd5b5061050860048036038101906105039190612b80565b6110b4565b6040516105159190613990565b60405180910390f35b34801561052a57600080fd5b5061054560048036038101906105409190612deb565b611148565b60405161055291906139ab565b60405180910390f35b34801561056757600080fd5b50610582600480360381019061057d9190612d50565b6112d8565b005b600061058f82611386565b9050919050565b6060600080546105a590613f94565b80601f01602080910402602001604051908101604052809291908181526020018280546105d190613f94565b801561061e5780601f106105f35761010080835404028352916020019161061e565b820191906000526020600020905b81548152906001019060200180831161060157829003601f168201915b5050505050905090565b600061063382611400565b610672576040517f08c379a000000000000000000000000000000000000000000000000000000000815260040161066990613c1d565b60405180910390fd5b6004600083815260200190815260200160002060009054906101000a900473ffffffffffffffffffffffffffffffffffffffff169050919050565b60006106b882610c4f565b90508073ffffffffffffffffffffffffffffffffffffffff168373ffffffffffffffffffffffffffffffffffffffff161415610729576040517f08c379a000000000000000000000000000000000000000000000000000000000815260040161072090613c7d565b60405180910390fd5b8073ffffffffffffffffffffffffffffffffffffffff1661074861146c565b73ffffffffffffffffffffffffffffffffffffffff16148061077757506107768161077161146c565b6110b4565b5b6107b6576040517f08c379a00000000000000000000000000000000000000000000000000000000081526004016107ad90613b3d565b60405180910390fd5b6107c08383611474565b505050565b6000600880549050905090565b6107e36107dd61146c565b8261152d565b610822576040517f08c379a000000000000000000000000000000000000000000000000000000000815260040161081990613c9d565b60405180910390fd5b61082d83838361160b565b505050565b600061083d83610d01565b821061087e576040517f08c379a000000000000000000000000000000000000000000000000000000000815260040161087590613a3d565b60405180910390fd5b600660008473ffffffffffffffffffffffffffffffffffffffff1673ffffffffffffffffffffffffffffffffffffffff168152602001908152602001600020600083815260200190815260200160002054905092915050565b6108f283838360405180602001604052806000815250611040565b505050565b61090861090261146c565b8261152d565b610947576040517f08c379a000000000000000000000000000000000000000000000000000000000815260040161093e90613d1d565b60405180910390fd5b61095081611867565b50565b600061095d6107c5565b821061099e576040517f08c379a000000000000000000000000000000000000000000000000000000000815260040161099590613cbd565b60405180910390fd5b600882815481106109d8577f4e487b7100000000000000000000000000000000000000000000000000000000600052603260045260246000fd5b90600052602060002001549050919050565b6109f381611400565b610a32576040517f08c379a0000000000000000000000000000000000000000000000000000000008152600401610a2990613a9d565b60405180910390fd5b600d600082815260200190815260200160002060010154341015610a8b576040517f08c379a0000000000000000000000000000000000000000000000000000000008152600401610a8290613cfd565b60405180910390fd5b600d600082815260200190815260200160002060030160003373ffffffffffffffffffffffffffffffffffffffff1673ffffffffffffffffffffffffffffffffffffffff16815260200190815260200160002060009054906101000a900460ff1615610b2c576040517f08c379a0000000000000000000000000000000000000000000000000000000008152600401610b2390613cdd565b60405180910390fd5b610b3581610c4f565b73ffffffffffffffffffffffffffffffffffffffff166108fc349081150290604051600060405180830381858888f19350505050158015610b7a573d6000803e3d6000fd5b506001600d600083815260200190815260200160002060030160003373ffffffffffffffffffffffffffffffffffffffff1673ffffffffffffffffffffffffffffffffffffffff16815260200190815260200160002060006101000a81548160ff0219169083151502179055507f5370a6767260f237bfcbf13cf74e2b7abd65f354ccddfa385a6e65ae361fae4c600d600083815260200190815260200160002060000134604051610c2d9291906139cd565b60405180910390a150565b6000600a60009054906101000a900460ff16905090565b6000806002600084815260200190815260200160002060009054906101000a900473ffffffffffffffffffffffffffffffffffffffff169050600073ffffffffffffffffffffffffffffffffffffffff168173ffffffffffffffffffffffffffffffffffffffff161415610cf8576040517f08c379a0000000000000000000000000000000000000000000000000000000008152600401610cef90613b7d565b60405180910390fd5b80915050919050565b60008073ffffffffffffffffffffffffffffffffffffffff168273ffffffffffffffffffffffffffffffffffffffff161415610d72576040517f08c379a0000000000000000000000000000000000000000000000000000000008152600401610d6990613b5d565b60405180910390fd5b600360008373ffffffffffffffffffffffffffffffffffffffff1673ffffffffffffffffffffffffffffffffffffffff168152602001908152602001600020549050919050565b606060018054610dc890613f94565b80601f0160208091040260200160405190810160405280929190818152602001828054610df490613f94565b8015610e415780601f10610e1657610100808354040283529160200191610e41565b820191906000526020600020905b815481529060010190602001808311610e2457829003601f168201915b5050505050905090565b610e5361146c565b73ffffffffffffffffffffffffffffffffffffffff168273ffffffffffffffffffffffffffffffffffffffff161415610ec1576040517f08c379a0000000000000000000000000000000000000000000000000000000008152600401610eb890613add565b60405180910390fd5b8060056000610ece61146c565b73ffffffffffffffffffffffffffffffffffffffff1673ffffffffffffffffffffffffffffffffffffffff16815260200190815260200160002060008473ffffffffffffffffffffffffffffffffffffffff1673ffffffffffffffffffffffffffffffffffffffff16815260200190815260200160002060006101000a81548160ff0219169083151502179055508173ffffffffffffffffffffffffffffffffffffffff16610f7b61146c565b73ffffffffffffffffffffffffffffffffffffffff167f17307eab39ab6107e8899845ad3d59bd9653f200f220920489ca2b5937696c3183604051610fc09190613990565b60405180910390a35050565b600080610fd883611400565b611017576040517f08c379a000000000000000000000000000000000000000000000000000000000815260040161100e90613bbd565b60405180910390fd5b61102083610c4f565b600d60008581526020019081526020016000206001015491509150915091565b61105161104b61146c565b8361152d565b611090576040517f08c379a000000000000000000000000000000000000000000000000000000000815260040161108790613c9d565b60405180910390fd5b61109c84848484611873565b50505050565b60606110ad826118cf565b9050919050565b6000600560008473ffffffffffffffffffffffffffffffffffffffff1673ffffffffffffffffffffffffffffffffffffffff16815260200190815260200160002060008373ffffffffffffffffffffffffffffffffffffffff1673ffffffffffffffffffffffffffffffffffffffff16815260200190815260200160002060009054906101000a900460ff16905092915050565b606061115382611400565b611192576040517f08c379a0000000000000000000000000000000000000000000000000000000008152600401611189906139fd565b60405180910390fd5b600d600083815260200190815260200160002060030160003373ffffffffffffffffffffffffffffffffffffffff1673ffffffffffffffffffffffffffffffffffffffff16815260200190815260200160002060009054906101000a900460ff16611232576040517f08c379a000000000000000000000000000000000000000000000000000000000815260040161122990613afd565b60405180910390fd5b600d6000838152602001908152602001600020600001805461125390613f94565b80601f016020809104026020016040519081016040528092919081815260200182805461127f90613f94565b80156112cc5780601f106112a1576101008083540402835291602001916112cc565b820191906000526020600020905b8154815290600101906020018083116112af57829003601f168201915b50505050509050919050565b6112e2600c611a21565b60006112ee600c611a37565b90506000600d60008381526020019081526020016000209050858582600001919061131a9291906128be565b5083816001018190555061132e8383611a45565b61137c8289898080601f016020809104026020016040519081016040528093929190818152602001838380828437600081840152601f19601f82011690508083019250505050505050611a63565b5050505050505050565b60007f780e9d63000000000000000000000000000000000000000000000000000000007bffffffffffffffffffffffffffffffffffffffffffffffffffffffff1916827bffffffffffffffffffffffffffffffffffffffffffffffffffffffff191614806113f957506113f882611ad7565b5b9050919050565b60008073ffffffffffffffffffffffffffffffffffffffff166002600084815260200190815260200160002060009054906101000a900473ffffffffffffffffffffffffffffffffffffffff1673ffffffffffffffffffffffffffffffffffffffff1614159050919050565b600033905090565b816004600083815260200190815260200160002060006101000a81548173ffffffffffffffffffffffffffffffffffffffff021916908373ffffffffffffffffffffffffffffffffffffffff160217905550808273ffffffffffffffffffffffffffffffffffffffff166114e783610c4f565b73ffffffffffffffffffffffffffffffffffffffff167f8c5be1e5ebec7d5bd14f71427d1e84f3dd0314c0f7b2291e5b200ac8c7c3b92560405160405180910390a45050565b600061153882611400565b611577576040517f08c379a000000000000000000000000000000000000000000000000000000000815260040161156e90613b1d565b60405180910390fd5b600061158283610c4f565b90508073ffffffffffffffffffffffffffffffffffffffff168473ffffffffffffffffffffffffffffffffffffffff1614806115f157508373ffffffffffffffffffffffffffffffffffffffff166115d984610628565b73ffffffffffffffffffffffffffffffffffffffff16145b80611602575061160181856110b4565b5b91505092915050565b8273ffffffffffffffffffffffffffffffffffffffff1661162b82610c4f565b73ffffffffffffffffffffffffffffffffffffffff1614611681576040517f08c379a000000000000000000000000000000000000000000000000000000000815260040161167890613c3d565b60405180910390fd5b600073ffffffffffffffffffffffffffffffffffffffff168273ffffffffffffffffffffffffffffffffffffffff1614156116f1576040517f08c379a00000000000000000000000000000000000000000000000000000000081526004016116e890613abd565b60405180910390fd5b6116fc838383611bb9565b611707600082611474565b6001600360008573ffffffffffffffffffffffffffffffffffffffff1673ffffffffffffffffffffffffffffffffffffffff16815260200190815260200160002060008282546117579190613e98565b925050819055506001600360008473ffffffffffffffffffffffffffffffffffffffff1673ffffffffffffffffffffffffffffffffffffffff16815260200190815260200160002060008282546117ae9190613e11565b92505081905550816002600083815260200190815260200160002060006101000a81548173ffffffffffffffffffffffffffffffffffffffff021916908373ffffffffffffffffffffffffffffffffffffffff160217905550808273ffffffffffffffffffffffffffffffffffffffff168473ffffffffffffffffffffffffffffffffffffffff167fddf252ad1be2c89b69c2b068fc378daa952ba7f163c4a11628f55a4df523b3ef60405160405180910390a4505050565b61187081611bc9565b50565b61187e84848461160b565b61188a84848484611c1c565b6118c9576040517f08c379a00000000000000000000000000000000000000000000000000000000081526004016118c090613a5d565b60405180910390fd5b50505050565b60606118da82611400565b611919576040517f08c379a000000000000000000000000000000000000000000000000000000000815260040161191090613bfd565b60405180910390fd5b6000600b6000848152602001908152602001600020805461193990613f94565b80601f016020809104026020016040519081016040528092919081815260200182805461196590613f94565b80156119b25780601f10611987576101008083540402835291602001916119b2565b820191906000526020600020905b81548152906001019060200180831161199557829003601f168201915b5050505050905060006119c3611db3565b90506000815114156119d9578192505050611a1c565b600082511115611a0e5780826040516020016119f69291906138dc565b60405160208183030381529060405292505050611a1c565b611a1784611dca565b925050505b919050565b6001816000016000828254019250508190555050565b600081600001549050919050565b611a5f828260405180602001604052806000815250611e71565b5050565b611a6c82611400565b611aab576040517f08c379a0000000000000000000000000000000000000000000000000000000008152600401611aa290613b9d565b60405180910390fd5b80600b60008481526020019081526020016000209080519060200190611ad2929190612944565b505050565b60007f80ac58cd000000000000000000000000000000000000000000000000000000007bffffffffffffffffffffffffffffffffffffffffffffffffffffffff1916827bffffffffffffffffffffffffffffffffffffffffffffffffffffffff19161480611ba257507f5b5e139f000000000000000000000000000000000000000000000000000000007bffffffffffffffffffffffffffffffffffffffffffffffffffffffff1916827bffffffffffffffffffffffffffffffffffffffffffffffffffffffff1916145b80611bb25750611bb182611ecc565b5b9050919050565b611bc4838383611f36565b505050565b611bd281611f8e565b6000600b60008381526020019081526020016000208054611bf290613f94565b905014611c1957600b60008281526020019081526020016000206000611c1891906129ca565b5b50565b6000611c3d8473ffffffffffffffffffffffffffffffffffffffff1661209f565b15611da6578373ffffffffffffffffffffffffffffffffffffffff1663150b7a02611c6661146c565b8786866040518563ffffffff1660e01b8152600401611c88949392919061391b565b602060405180830381600087803b158015611ca257600080fd5b505af1925050508015611cd357506040513d601f19601f82011682018060405250810190611cd09190612d27565b60015b611d56573d8060008114611d03576040519150601f19603f3d011682016040523d82523d6000602084013e611d08565b606091505b50600081511415611d4e576040517f08c379a0000000000000000000000000000000000000000000000000000000008152600401611d4590613a5d565b60405180910390fd5b805181602001fd5b63150b7a0260e01b7bffffffffffffffffffffffffffffffffffffffffffffffffffffffff1916817bffffffffffffffffffffffffffffffffffffffffffffffffffffffff191614915050611dab565b600190505b949350505050565b606060405180602001604052806000815250905090565b6060611dd582611400565b611e14576040517f08c379a0000000000000000000000000000000000000000000000000000000008152600401611e0b90613c5d565b60405180910390fd5b6000611e1e611db3565b90506000815111611e3e5760405180602001604052806000815250611e69565b80611e48846120b2565b604051602001611e599291906138dc565b6040516020818303038152906040525b915050919050565b611e7b838361225f565b611e886000848484611c1c565b611ec7576040517f08c379a0000000000000000000000000000000000000000000000000000000008152600401611ebe90613a5d565b60405180910390fd5b505050565b60007f01ffc9a7000000000000000000000000000000000000000000000000000000007bffffffffffffffffffffffffffffffffffffffffffffffffffffffff1916827bffffffffffffffffffffffffffffffffffffffffffffffffffffffff1916149050919050565b611f4183838361242d565b611f49610c38565b15611f89576040517f08c379a0000000000000000000000000000000000000000000000000000000008152600401611f8090613a1d565b60405180910390fd5b505050565b6000611f9982610c4f565b9050611fa781600084611bb9565b611fb2600083611474565b6001600360008373ffffffffffffffffffffffffffffffffffffffff1673ffffffffffffffffffffffffffffffffffffffff16815260200190815260200160002060008282546120029190613e98565b925050819055506002600083815260200190815260200160002060006101000a81549073ffffffffffffffffffffffffffffffffffffffff021916905581600073ffffffffffffffffffffffffffffffffffffffff168273ffffffffffffffffffffffffffffffffffffffff167fddf252ad1be2c89b69c2b068fc378daa952ba7f163c4a11628f55a4df523b3ef60405160405180910390a45050565b600080823b905060008111915050919050565b606060008214156120fa576040518060400160405280600181526020017f3000000000000000000000000000000000000000000000000000000000000000815250905061225a565b600082905060005b6000821461212c57808061211590613fc6565b915050600a826121259190613e67565b9150612102565b60008167ffffffffffffffff81111561216e577f4e487b7100000000000000000000000000000000000000000000000000000000600052604160045260246000fd5b6040519080825280601f01601f1916602001820160405280156121a05781602001600182028036833780820191505090505b5090505b60008514612253576001826121b99190613e98565b9150600a856121c8919061400f565b60306121d49190613e11565b60f81b818381518110612210577f4e487b7100000000000000000000000000000000000000000000000000000000600052603260045260246000fd5b60200101907effffffffffffffffffffffffffffffffffffffffffffffffffffffffffffff1916908160001a905350600a8561224c9190613e67565b94506121a4565b8093505050505b919050565b600073ffffffffffffffffffffffffffffffffffffffff168273ffffffffffffffffffffffffffffffffffffffff1614156122cf576040517f08c379a00000000000000000000000000000000000000000000000000000000081526004016122c690613bdd565b60405180910390fd5b6122d881611400565b15612318576040517f08c379a000000000000000000000000000000000000000000000000000000000815260040161230f90613a7d565b60405180910390fd5b61232460008383611bb9565b6001600360008473ffffffffffffffffffffffffffffffffffffffff1673ffffffffffffffffffffffffffffffffffffffff16815260200190815260200160002060008282546123749190613e11565b92505081905550816002600083815260200190815260200160002060006101000a81548173ffffffffffffffffffffffffffffffffffffffff021916908373ffffffffffffffffffffffffffffffffffffffff160217905550808273ffffffffffffffffffffffffffffffffffffffff16600073ffffffffffffffffffffffffffffffffffffffff167fddf252ad1be2c89b69c2b068fc378daa952ba7f163c4a11628f55a4df523b3ef60405160405180910390a45050565b612438838383612541565b600073ffffffffffffffffffffffffffffffffffffffff168373ffffffffffffffffffffffffffffffffffffffff16141561247b5761247681612546565b6124ba565b8173ffffffffffffffffffffffffffffffffffffffff168373ffffffffffffffffffffffffffffffffffffffff16146124b9576124b8838261258f565b5b5b600073ffffffffffffffffffffffffffffffffffffffff168273ffffffffffffffffffffffffffffffffffffffff1614156124fd576124f8816126fc565b61253c565b8273ffffffffffffffffffffffffffffffffffffffff168273ffffffffffffffffffffffffffffffffffffffff161461253b5761253a828261283f565b5b5b505050565b505050565b6008805490506009600083815260200190815260200160002081905550600881908060018154018082558091505060019003906000526020600020016000909190919091505550565b6000600161259c84610d01565b6125a69190613e98565b905060006007600084815260200190815260200160002054905081811461268b576000600660008673ffffffffffffffffffffffffffffffffffffffff1673ffffffffffffffffffffffffffffffffffffffff168152602001908152602001600020600084815260200190815260200160002054905080600660008773ffffffffffffffffffffffffffffffffffffffff1673ffffffffffffffffffffffffffffffffffffffff168152602001908152602001600020600084815260200190815260200160002081905550816007600083815260200190815260200160002081905550505b6007600084815260200190815260200160002060009055600660008573ffffffffffffffffffffffffffffffffffffffff1673ffffffffffffffffffffffffffffffffffffffff16815260200190815260200160002060008381526020019081526020016000206000905550505050565b600060016008805490506127109190613e98565b9050600060096000848152602001908152602001600020549050600060088381548110612766577f4e487b7100000000000000000000000000000000000000000000000000000000600052603260045260246000fd5b9060005260206000200154905080600883815481106127ae577f4e487b7100000000000000000000000000000000000000000000000000000000600052603260045260246000fd5b906000526020600020018190555081600960008381526020019081526020016000208190555060096000858152602001908152602001600020600090556008805480612823577f4e487b7100000000000000000000000000000000000000000000000000000000600052603160045260246000fd5b6001900381819060005260206000200160009055905550505050565b600061284a83610d01565b905081600660008573ffffffffffffffffffffffffffffffffffffffff1673ffffffffffffffffffffffffffffffffffffffff168152602001908152602001600020600083815260200190815260200160002081905550806007600084815260200190815260200160002081905550505050565b8280546128ca90613f94565b90600052602060002090601f0160209004810192826128ec5760008555612933565b82601f1061290557803560ff1916838001178555612933565b82800160010185558215612933579182015b82811115612932578235825591602001919060010190612917565b5b5090506129409190612a0a565b5090565b82805461295090613f94565b90600052602060002090601f01602090048101928261297257600085556129b9565b82601f1061298b57805160ff19168380011785556129b9565b828001600101855582156129b9579182015b828111156129b857825182559160200191906001019061299d565b5b5090506129c69190612a0a565b5090565b5080546129d690613f94565b6000825580601f106129e85750612a07565b601f016020900490600052602060002090810190612a069190612a0a565b5b50565b5b80821115612a23576000816000905550600101612a0b565b5090565b6000612a3a612a3584613d89565b613d58565b905082815260208101848484011115612a5257600080fd5b612a5d848285613f52565b509392505050565b600081359050612a748161410d565b92915050565b600081359050612a8981614124565b92915050565b600081359050612a9e8161413b565b92915050565b600081359050612ab381614152565b92915050565b600081519050612ac881614152565b92915050565b600082601f830112612adf57600080fd5b8135612aef848260208601612a27565b91505092915050565b60008083601f840112612b0a57600080fd5b8235905067ffffffffffffffff811115612b2357600080fd5b602083019150836001820283011115612b3b57600080fd5b9250929050565b600081359050612b5181614169565b92915050565b600060208284031215612b6957600080fd5b6000612b7784828501612a65565b91505092915050565b60008060408385031215612b9357600080fd5b6000612ba185828601612a65565b9250506020612bb285828601612a65565b9150509250929050565b600080600060608486031215612bd157600080fd5b6000612bdf86828701612a65565b9350506020612bf086828701612a65565b9250506040612c0186828701612b42565b9150509250925092565b60008060008060808587031215612c2157600080fd5b6000612c2f87828801612a65565b9450506020612c4087828801612a65565b9350506040612c5187828801612b42565b925050606085013567ffffffffffffffff811115612c6e57600080fd5b612c7a87828801612ace565b91505092959194509250565b60008060408385031215612c9957600080fd5b6000612ca785828601612a65565b9250506020612cb885828601612a8f565b9150509250929050565b60008060408385031215612cd557600080fd5b6000612ce385828601612a65565b9250506020612cf485828601612b42565b9150509250929050565b600060208284031215612d1057600080fd5b6000612d1e84828501612aa4565b91505092915050565b600060208284031215612d3957600080fd5b6000612d4784828501612ab9565b91505092915050565b60008060008060008060808789031215612d6957600080fd5b600087013567ffffffffffffffff811115612d8357600080fd5b612d8f89828a01612af8565b9650965050602087013567ffffffffffffffff811115612dae57600080fd5b612dba89828a01612af8565b94509450506040612dcd89828a01612b42565b9250506060612dde89828a01612a7a565b9150509295509295509295565b600060208284031215612dfd57600080fd5b6000612e0b84828501612b42565b91505092915050565b612e1d81613ecc565b82525050565b612e2c81613ef0565b82525050565b6000612e3d82613dce565b612e478185613de4565b9350612e57818560208601613f61565b612e60816140fc565b840191505092915050565b6000612e7682613dd9565b612e808185613df5565b9350612e90818560208601613f61565b612e99816140fc565b840191505092915050565b6000612eaf82613dd9565b612eb98185613e06565b9350612ec9818560208601613f61565b80840191505092915050565b60008154612ee281613f94565b612eec8186613df5565b94506001821660008114612f075760018114612f1957612f4c565b60ff1983168652602086019350612f4c565b612f2285613db9565b60005b83811015612f4457815481890152600182019150602081019050612f25565b808801955050505b50505092915050565b6000612f62602683613df5565b91507f617373657455524920717565727920666f72206e6f6e6578697374656e74207460008301527f6f6b656e496400000000000000000000000000000000000000000000000000006020830152604082019050919050565b6000612fc8602b83613df5565b91507f4552433732315061757361626c653a20746f6b656e207472616e73666572207760008301527f68696c65207061757365640000000000000000000000000000000000000000006020830152604082019050919050565b600061302e602b83613df5565b91507f455243373231456e756d657261626c653a206f776e657220696e646578206f7560008301527f74206f6620626f756e64730000000000000000000000000000000000000000006020830152604082019050919050565b6000613094603283613df5565b91507f4552433732313a207472616e7366657220746f206e6f6e20455243373231526560008301527f63656976657220696d706c656d656e74657200000000000000000000000000006020830152604082019050919050565b60006130fa601c83613df5565b91507f4552433732313a20746f6b656e20616c7265616479206d696e746564000000006000830152602082019050919050565b600061313a602d83613df5565b91507f70757263686173654c6963656e636520717565727920666f72206e6f6e65786960008301527f7374656e7420746f6b656e4964000000000000000000000000000000000000006020830152604082019050919050565b60006131a0602483613df5565b91507f4552433732313a207472616e7366657220746f20746865207a65726f2061646460008301527f72657373000000000000000000000000000000000000000000000000000000006020830152604082019050919050565b6000613206601983613df5565b91507f4552433732313a20617070726f766520746f2063616c6c6572000000000000006000830152602082019050919050565b6000613246601683613df5565b91507f486173206e6f74206265656e20707572636861736564000000000000000000006000830152602082019050919050565b6000613286602c83613df5565b91507f4552433732313a206f70657261746f7220717565727920666f72206e6f6e657860008301527f697374656e7420746f6b656e00000000000000000000000000000000000000006020830152604082019050919050565b60006132ec603883613df5565b91507f4552433732313a20617070726f76652063616c6c6572206973206e6f74206f7760008301527f6e6572206e6f7220617070726f76656420666f7220616c6c00000000000000006020830152604082019050919050565b6000613352602a83613df5565b91507f4552433732313a2062616c616e636520717565727920666f7220746865207a6560008301527f726f2061646472657373000000000000000000000000000000000000000000006020830152604082019050919050565b60006133b8602983613df5565b91507f4552433732313a206f776e657220717565727920666f72206e6f6e657869737460008301527f656e7420746f6b656e00000000000000000000000000000000000000000000006020830152604082019050919050565b600061341e602e83613df5565b91507f45524337323155524953746f726167653a2055524920736574206f66206e6f6e60008301527f6578697374656e7420746f6b656e0000000000000000000000000000000000006020830152604082019050919050565b6000613484602783613df5565b91507f6173736574496e666f20717565727920666f72206e6f6e6578697374656e742060008301527f746f6b656e4964000000000000000000000000000000000000000000000000006020830152604082019050919050565b60006134ea602083613df5565b91507f4552433732313a206d696e7420746f20746865207a65726f20616464726573736000830152602082019050919050565b600061352a603183613df5565b91507f45524337323155524953746f726167653a2055524920717565727920666f722060008301527f6e6f6e6578697374656e7420746f6b656e0000000000000000000000000000006020830152604082019050919050565b6000613590602c83613df5565b91507f4552433732313a20617070726f76656420717565727920666f72206e6f6e657860008301527f697374656e7420746f6b656e00000000000000000000000000000000000000006020830152604082019050919050565b60006135f6602983613df5565b91507f4552433732313a207472616e73666572206f6620746f6b656e2074686174206960008301527f73206e6f74206f776e00000000000000000000000000000000000000000000006020830152604082019050919050565b600061365c602f83613df5565b91507f4552433732314d657461646174613a2055524920717565727920666f72206e6f60008301527f6e6578697374656e7420746f6b656e00000000000000000000000000000000006020830152604082019050919050565b60006136c2602183613df5565b91507f4552433732313a20617070726f76616c20746f2063757272656e74206f776e6560008301527f72000000000000000000000000000000000000000000000000000000000000006020830152604082019050919050565b6000613728603183613df5565b91507f4552433732313a207472616e736665722063616c6c6572206973206e6f74206f60008301527f776e6572206e6f7220617070726f7665640000000000000000000000000000006020830152604082019050919050565b600061378e602c83613df5565b91507f455243373231456e756d657261626c653a20676c6f62616c20696e646578206f60008301527f7574206f6620626f756e647300000000000000000000000000000000000000006020830152604082019050919050565b60006137f4601983613df5565b91507f4c6963656e636520616c726561647920707572636861736564000000000000006000830152602082019050919050565b6000613834601a83613df5565b91507f4e6f7420656e6f7567682045746820746f2070757263686173650000000000006000830152602082019050919050565b6000613874603083613df5565b91507f4552433732314275726e61626c653a2063616c6c6572206973206e6f74206f7760008301527f6e6572206e6f7220617070726f766564000000000000000000000000000000006020830152604082019050919050565b6138d681613f48565b82525050565b60006138e88285612ea4565b91506138f48284612ea4565b91508190509392505050565b60006020820190506139156000830184612e14565b92915050565b60006080820190506139306000830187612e14565b61393d6020830186612e14565b61394a60408301856138cd565b818103606083015261395c8184612e32565b905095945050505050565b600060408201905061397c6000830185612e14565b61398960208301846138cd565b9392505050565b60006020820190506139a56000830184612e23565b92915050565b600060208201905081810360008301526139c58184612e6b565b905092915050565b600060408201905081810360008301526139e78185612ed5565b90506139f660208301846138cd565b9392505050565b60006020820190508181036000830152613a1681612f55565b9050919050565b60006020820190508181036000830152613a3681612fbb565b9050919050565b60006020820190508181036000830152613a5681613021565b9050919050565b60006020820190508181036000830152613a7681613087565b9050919050565b60006020820190508181036000830152613a96816130ed565b9050919050565b60006020820190508181036000830152613ab68161312d565b9050919050565b60006020820190508181036000830152613ad681613193565b9050919050565b60006020820190508181036000830152613af6816131f9565b9050919050565b60006020820190508181036000830152613b1681613239565b9050919050565b60006020820190508181036000830152613b3681613279565b9050919050565b60006020820190508181036000830152613b56816132df565b9050919050565b60006020820190508181036000830152613b7681613345565b9050919050565b60006020820190508181036000830152613b96816133ab565b9050919050565b60006020820190508181036000830152613bb681613411565b9050919050565b60006020820190508181036000830152613bd681613477565b9050919050565b60006020820190508181036000830152613bf6816134dd565b9050919050565b60006020820190508181036000830152613c168161351d565b9050919050565b60006020820190508181036000830152613c3681613583565b9050919050565b60006020820190508181036000830152613c56816135e9565b9050919050565b60006020820190508181036000830152613c768161364f565b9050919050565b60006020820190508181036000830152613c96816136b5565b9050919050565b60006020820190508181036000830152613cb68161371b565b9050919050565b60006020820190508181036000830152613cd681613781565b9050919050565b60006020820190508181036000830152613cf6816137e7565b9050919050565b60006020820190508181036000830152613d1681613827565b9050919050565b60006020820190508181036000830152613d3681613867565b9050919050565b6000602082019050613d5260008301846138cd565b92915050565b6000604051905081810181811067ffffffffffffffff82111715613d7f57613d7e6140cd565b5b8060405250919050565b600067ffffffffffffffff821115613da457613da36140cd565b5b601f19601f8301169050602081019050919050565b60008190508160005260206000209050919050565b600081519050919050565b600081519050919050565b600082825260208201905092915050565b600082825260208201905092915050565b600081905092915050565b6000613e1c82613f48565b9150613e2783613f48565b9250827fffffffffffffffffffffffffffffffffffffffffffffffffffffffffffffffff03821115613e5c57613e5b614040565b5b828201905092915050565b6000613e7282613f48565b9150613e7d83613f48565b925082613e8d57613e8c61406f565b5b828204905092915050565b6000613ea382613f48565b9150613eae83613f48565b925082821015613ec157613ec0614040565b5b828203905092915050565b6000613ed782613f28565b9050919050565b6000613ee982613f28565b9050919050565b60008115159050919050565b60007fffffffff0000000000000000000000000000000000000000000000000000000082169050919050565b600073ffffffffffffffffffffffffffffffffffffffff82169050919050565b6000819050919050565b82818337600083830152505050565b60005b83811015613f7f578082015181840152602081019050613f64565b83811115613f8e576000848401525b50505050565b60006002820490506001821680613fac57607f821691505b60208210811415613fc057613fbf61409e565b5b50919050565b6000613fd182613f48565b91507fffffffffffffffffffffffffffffffffffffffffffffffffffffffffffffffff82141561400457614003614040565b5b600182019050919050565b600061401a82613f48565b915061402583613f48565b9250826140355761403461406f565b5b828206905092915050565b7f4e487b7100000000000000000000000000000000000000000000000000000000600052601160045260246000fd5b7f4e487b7100000000000000000000000000000000000000000000000000000000600052601260045260246000fd5b7f4e487b7100000000000000000000000000000000000000000000000000000000600052602260045260246000fd5b7f4e487b7100000000000000000000000000000000000000000000000000000000600052604160045260246000fd5b6000601f19601f8301169050919050565b61411681613ecc565b811461412157600080fd5b50565b61412d81613ede565b811461413857600080fd5b50565b61414481613ef0565b811461414f57600080fd5b50565b61415b81613efc565b811461416657600080fd5b50565b61417281613f48565b811461417d57600080fd5b5056fea2646970667358221220e65b705656f4eced4e4c7cceff93c99d1f8f2674da6c9cd946e14faae546493764736f6c63430008000033556e6976657273616c204469676974616c204173736574204c6963656e63696e67204e4654",
  "immutableReferences": {},
  "source": "// SPDX-License-Identifier: MIT\r\npragma solidity ^0.8.0;\r\n\r\nimport \"@openzeppelin/contracts/token/ERC721/ERC721.sol\";\r\nimport \"@openzeppelin/contracts/token/ERC721/extensions/ERC721Enumerable.sol\";\r\nimport \"@openzeppelin/contracts/token/ERC721/extensions/ERC721Burnable.sol\";\r\nimport \"@openzeppelin/contracts/token/ERC721/extensions/ERC721Pausable.sol\";\r\nimport \"@openzeppelin/contracts/token/ERC721/extensions/ERC721URIStorage.sol\";\r\nimport \"@openzeppelin/contracts/utils/Counters.sol\";\r\n\r\ncontract UDALProtocol is ERC721(\"Universal Digital Asset Licencing NFT\", \"UDALNFT\"), ERC721Enumerable, ERC721Burnable, ERC721Pausable, ERC721URIStorage {\r\n  using Counters for Counters.Counter;\r\n  Counters.Counter private _counter;\r\n\r\n  struct AssetInfo {\r\n      string assetURI;\r\n      uint256 price;    // Price in wei\r\n      uint256 purchasedLicenceCounter;\r\n      mapping(address => bool) purchasedLicences;\r\n  }\r\n\r\n  mapping(uint256 => AssetInfo) private _assetInfo;\r\n\r\n  event LicencePurchased(string assetURI, uint256 amount);\r\n\r\n  /// @notice Registers an assete for sale in the contract\r\n  /// @dev tokenURI and assetURI should have prefix http, https, ipfs or ar.  For example, use ar://MAVgEMO3qlqe-qHNVs00qgwwbCb6FY2k15vJP3gBLW4 \r\n  ///      instead of https://arweave.net/MAVgEMO3qlqe-qHNVs00qgwwbCb6FY2k15vJP3gBLW4.  Emits Created with ID of asset when completed.\r\n  /// @param _tokenURI URI of the json file containing the metadata in JSON format.  Should conform to the ERC721 Metadata JSON Schema\r\n  /// @param _assetURI URI of the full size file the licence would be purchased for.\r\n  /// @param price To purchase a licence\r\n  /// @param owner The address of the copyright owner\r\n  function mint (string calldata _tokenURI, string calldata _assetURI, uint256 price, address payable owner) external {\r\n    _counter.increment();\r\n    uint256 newTokenId = _counter.current();\r\n    AssetInfo storage newAssetInfo = _assetInfo[newTokenId];\r\n    newAssetInfo.assetURI = _assetURI;\r\n    newAssetInfo.price = price;\r\n    _safeMint(owner, newTokenId);\r\n    _setTokenURI (newTokenId, _tokenURI);\r\n  }\r\n\r\n  /// @notice The stored information for a given asset\r\n  /// @dev Throws if asset with ID is not valid\r\n  /// @param tokenId Id of the asset\r\n  /// @return owner of the asset\r\n  /// @return price of the asset in wei\r\n  function assetInfo (uint256 tokenId) external view returns (address owner, uint256 price) {\r\n    require(_exists(tokenId), \"assetInfo query for nonexistent tokenId\");\r\n    return (ownerOf(tokenId), _assetInfo[tokenId].price);\r\n  } \r\n\r\n  /// @notice Creates a licence for caller and sends ETH to NFT owner\r\n  /// @dev Throws if ETH sent with contract is less than price\r\n  /// @param tokenId Id of the asset to purchase\r\n  function purchaseLicence(uint256 tokenId) external payable {\r\n      require(_exists(tokenId), \"purchaseLicence query for nonexistent tokenId\");\r\n      require (msg.value >= _assetInfo[tokenId].price, \"Not enough Eth to purchase\");\r\n      require (!_assetInfo[tokenId].purchasedLicences[msg.sender], \"Licence already purchased\");\r\n\r\n      payable(ownerOf(tokenId)).transfer(msg.value);\r\n      _assetInfo[tokenId].purchasedLicences[msg.sender] = true;\r\n      emit LicencePurchased(_assetInfo[tokenId].assetURI, msg.value);\r\n  }\r\n\r\n  /// @notice The metadata Uniform Resource Identifier (URI) for a given asset\r\n  /// @dev Throws if asset with ID is not valid. Also throws if the caller hasn't purchased the asset ID.\r\n  /// @param tokenId Id of the asset\r\n  /// @return assetURI of the fill size asset\r\n  function assetURI(uint256 tokenId) external view returns (string memory) {\r\n    require(_exists(tokenId), \"assetURI query for nonexistent tokenId\");\r\n    require(_assetInfo[tokenId].purchasedLicences[msg.sender], \"Has not been purchased\");\r\n    return _assetInfo[tokenId].assetURI;\r\n  }\r\n\r\n  // @notice Conforms to the ERC721 metadata extension - https://eips.ethereum.org/EIPS/eip-721\r\n  function tokenURI(uint256 tokenId) public view override(ERC721, ERC721URIStorage) returns (string memory) {\r\n    return super.tokenURI(tokenId);\r\n  }\r\n\r\n  // As ERC721, ERC721Enumerable, and ERC721Pausable include _beforeTokenTransfer we need to override all\r\n  function _beforeTokenTransfer(address from, address to, uint256 amount) internal override(ERC721, ERC721Enumerable, ERC721Pausable) {\r\n    super._beforeTokenTransfer(from, to, amount);\r\n  }\r\n\r\n  // As ERC721 and ERC721Enumerable include supportsInterface we need to override both.\r\n  function supportsInterface(bytes4 interfaceId) public view override(ERC721, ERC721Enumerable) returns (bool) {\r\n        return super.supportsInterface(interfaceId);\r\n  }\r\n\r\n  // As ERC721 and ERC721URIStorage include supportsInterface we need to override both.\r\n  function _burn(uint256 tokenId) internal override (ERC721, ERC721URIStorage)  {\r\n    super._burn(tokenId);\r\n  }\r\n}\r\n",
  "sourcePath": "D:\\Photerloo\\playground\\blockchain-developer-bootcamp-final-project\\contracts\\UDALProtocol.sol",
  "compiler": {
    "name": "solc",
    "version": "0.8.0+commit.c7dfd78e.Emscripten.clang"
  },
  "schemaVersion": "3.4.2",
  "updatedAt": "2021-09-27T16:40:44.194Z",
  "devdoc": {
    "kind": "dev",
    "methods": {
      "approve(address,uint256)": {
        "details": "See {IERC721-approve}."
      },
      "assetInfo(uint256)": {
        "details": "Throws if asset with ID is not valid",
        "params": {
          "tokenId": "Id of the asset"
        },
        "returns": {
          "owner": "of the asset",
          "price": "of the asset in wei"
        }
      },
      "assetURI(uint256)": {
        "details": "Throws if asset with ID is not valid. Also throws if the caller hasn't purchased the asset ID.",
        "params": {
          "tokenId": "Id of the asset"
        },
        "returns": {
          "_0": "assetURI of the fill size asset"
        }
      },
      "balanceOf(address)": {
        "details": "See {IERC721-balanceOf}."
      },
      "burn(uint256)": {
        "details": "Burns `tokenId`. See {ERC721-_burn}. Requirements: - The caller must own `tokenId` or be an approved operator."
      },
      "getApproved(uint256)": {
        "details": "See {IERC721-getApproved}."
      },
      "isApprovedForAll(address,address)": {
        "details": "See {IERC721-isApprovedForAll}."
      },
      "mint(string,string,uint256,address)": {
        "details": "tokenURI and assetURI should have prefix http, https, ipfs or ar.  For example, use ar://MAVgEMO3qlqe-qHNVs00qgwwbCb6FY2k15vJP3gBLW4       instead of https://arweave.net/MAVgEMO3qlqe-qHNVs00qgwwbCb6FY2k15vJP3gBLW4.  Emits Created with ID of asset when completed.",
        "params": {
          "_assetURI": "URI of the full size file the licence would be purchased for.",
          "_tokenURI": "URI of the json file containing the metadata in JSON format.  Should conform to the ERC721 Metadata JSON Schema",
          "owner": "The address of the copyright owner",
          "price": "To purchase a licence"
        }
      },
      "name()": {
        "details": "See {IERC721Metadata-name}."
      },
      "ownerOf(uint256)": {
        "details": "See {IERC721-ownerOf}."
      },
      "paused()": {
        "details": "Returns true if the contract is paused, and false otherwise."
      },
      "purchaseLicence(uint256)": {
        "details": "Throws if ETH sent with contract is less than price",
        "params": {
          "tokenId": "Id of the asset to purchase"
        }
      },
      "safeTransferFrom(address,address,uint256)": {
        "details": "See {IERC721-safeTransferFrom}."
      },
      "safeTransferFrom(address,address,uint256,bytes)": {
        "details": "See {IERC721-safeTransferFrom}."
      },
      "setApprovalForAll(address,bool)": {
        "details": "See {IERC721-setApprovalForAll}."
      },
      "symbol()": {
        "details": "See {IERC721Metadata-symbol}."
      },
      "tokenByIndex(uint256)": {
        "details": "See {IERC721Enumerable-tokenByIndex}."
      },
      "tokenOfOwnerByIndex(address,uint256)": {
        "details": "See {IERC721Enumerable-tokenOfOwnerByIndex}."
      },
      "totalSupply()": {
        "details": "See {IERC721Enumerable-totalSupply}."
      },
      "transferFrom(address,address,uint256)": {
        "details": "See {IERC721-transferFrom}."
      }
    },
    "version": 1
  },
  "userdoc": {
    "kind": "user",
    "methods": {
      "assetInfo(uint256)": {
        "notice": "The stored information for a given asset"
      },
      "assetURI(uint256)": {
        "notice": "The metadata Uniform Resource Identifier (URI) for a given asset"
      },
      "mint(string,string,uint256,address)": {
        "notice": "Registers an assete for sale in the contract"
      },
      "purchaseLicence(uint256)": {
        "notice": "Creates a licence for caller and sends ETH to NFT owner"
      }
    },
    "version": 1
  }
}