{
  "contractName": "UDALProtocol",
  "abi": [
    {
      "inputs": [],
      "payable": false,
      "stateMutability": "nonpayable",
      "type": "constructor"
    },
    {
      "constant": false,
      "inputs": [
        {
          "internalType": "address",
          "name": "owner",
          "type": "address"
        },
        {
          "internalType": "string",
          "name": "metaDataURI",
          "type": "string"
        },
        {
          "internalType": "string",
          "name": "assetURI",
          "type": "string"
        },
        {
          "internalType": "uint256",
          "name": "price",
          "type": "uint256"
        }
      ],
      "name": "create",
      "outputs": [
        {
          "internalType": "uint256",
          "name": "",
          "type": "uint256"
        }
      ],
      "payable": false,
      "stateMutability": "nonpayable",
      "type": "function"
    },
    {
      "constant": true,
      "inputs": [],
      "name": "getLength",
      "outputs": [
        {
          "internalType": "uint256",
          "name": "",
          "type": "uint256"
        }
      ],
      "payable": false,
      "stateMutability": "view",
      "type": "function"
    },
    {
      "constant": true,
      "inputs": [
        {
          "internalType": "uint256",
          "name": "id",
          "type": "uint256"
        }
      ],
      "name": "assetInfo",
      "outputs": [
        {
          "internalType": "address",
          "name": "owner",
          "type": "address"
        },
        {
          "internalType": "string",
          "name": "metdataURI",
          "type": "string"
        },
        {
          "internalType": "uint256",
          "name": "price",
          "type": "uint256"
        }
      ],
      "payable": false,
      "stateMutability": "view",
      "type": "function"
    }
  ],
  "bytecode": "0x608060405234801561001057600080fd5b50610503806100206000396000f3fe608060405234801561001057600080fd5b50600436106100415760003560e01c8063a879fcbb14610046578063be1c766b14610127578063f1a00ce214610145575b600080fd5b6100726004803603602081101561005c57600080fd5b8101908080359060200190929190505050610251565b604051808473ffffffffffffffffffffffffffffffffffffffff1673ffffffffffffffffffffffffffffffffffffffff16815260200180602001838152602001828103825284818151815260200191508051906020019080838360005b838110156100ea5780820151818401526020810190506100cf565b50505050905090810190601f1680156101175780820380516001836020036101000a031916815260200191505b5094505050505060405180910390f35b61012f610342565b6040518082815260200191505060405180910390f35b61023b6004803603608081101561015b57600080fd5b81019080803573ffffffffffffffffffffffffffffffffffffffff1690602001909291908035906020019064010000000081111561019857600080fd5b8201836020820111156101aa57600080fd5b803590602001918460018302840111640100000000831117156101cc57600080fd5b9091929391929390803590602001906401000000008111156101ed57600080fd5b8201836020820111156101ff57600080fd5b8035906020019184600183028401116401000000008311171561022157600080fd5b90919293919293908035906020019092919050505061034e565b6040518082815260200191505060405180910390f35b600060606000808054905084106102b3576040517f08c379a00000000000000000000000000000000000000000000000000000000081526004018080602001828103825260218152602001806104ae6021913960400191505060405180910390fd5b6000806000815481106102c257fe5b906000526020600020906004020160000160009054906101000a900473ffffffffffffffffffffffffffffffffffffffff169050806000805490506040518060400160405280600281526020017f616200000000000000000000000000000000000000000000000000000000000081525090935093509350509193909250565b60008080549050905090565b6000806000808154811061035e57fe5b9060005260206000209060040201905060058160030181905550878160000160006101000a81548173ffffffffffffffffffffffffffffffffffffffff021916908373ffffffffffffffffffffffffffffffffffffffff1602179055508773ffffffffffffffffffffffffffffffffffffffff16600080815481106103df57fe5b906000526020600020906004020160000160009054906101000a900473ffffffffffffffffffffffffffffffffffffffff1673ffffffffffffffffffffffffffffffffffffffff161461049a576040517f08c379a00000000000000000000000000000000000000000000000000000000081526004018080602001828103825260118152602001807f4f776e657220697320636f72726563742e00000000000000000000000000000081525060200191505060405180910390fd5b600080549050915050969550505050505056fe496e76616c69642049642070726f766964656420746f206173736574496e666f2ea265627a7a723158207125b49647b2049a46f826a77ea41a07864d8211a9809937c027d6e02986a43964736f6c63430005100032",
  "source": "// SPDX-License-Identifier: MIT\npragma solidity >=0.4.22 <0.9.0;\n\ncontract UDALProtocol {\n  struct AssetInfo {\n      address owner;              \n      string metaDataURI;      \n      string assetURI;\n      uint256 price;\n  }\n\n  //AssetInfo[1] public _assetInfo;\n  AssetInfo[] _assetInfo;\n  uint test;\n\n  constructor() public {\n  }\n\n  /// @notice Registers a photo for sale in the contract\n  /// @dev metaDataURI and assetURI should have prefix http, https, ipfs or ar.  For example, use ar://MAVgEMO3qlqe-qHNVs00qgwwbCb6FY2k15vJP3gBLW4 instead of https://arweave.net/MAVgEMO3qlqe-qHNVs00qgwwbCb6FY2k15vJP3gBLW4.\n  /// @param owner The address of the photo copyright owner\n  /// @param metaDataURI URI of the json file containing the metadata in JSON format.\n  /// @param assetURI URI of the full size photo the licence would be purchased for.\n  /// @param price To purchase a licence\n  /// @return The ID of the newly created asset.  This ID can be used to purchase a licence to the photo.\n  function create (address owner, string calldata metaDataURI, string calldata assetURI, uint256 price) external returns (uint256) {\n    AssetInfo storage newAssetInfo = _assetInfo[0];\n    //test = 1;\n    /*uint l = _assetInfo.length + 1;*/\n    newAssetInfo.price =5;\n    newAssetInfo.owner = owner;\n    \n    /*newAssetInfo.owner = owner;\n    newAssetInfo.metaDataURI = metaDataURI;\n    newAssetInfo.assetURI = assetURI;\n    newAssetInfo.price = price;\n    _assetInfo.push(newAssetInfo);*/\n    //AssetInfo memory a = AssetInfo(owner, \"a\", \"a\", 1);\n    //AssetInfo memory ab = AssetInfo(owner, \"a\", \"a\", 1);\n    // _assetInfo.push(AssetInfo(owner, \"a\", \"a\", 1));   // <<<<****** This is not saving to memory!!!!!!!!\n\n    //AssetInfo storage o = _assetInfo[0];\n    //o.owner = owner;\n    require(_assetInfo[0].owner == owner, \"Owner is correct.\");\n    return _assetInfo.length;\n  }\n\n  function getLength() external view returns (uint256) {\n    return _assetInfo.length;\n  }\n\n  /// @notice The stored information for a given photo\n  /// @dev Throws if photo with ID is not valid\n  /// @param id Id of the photo\n  /// @return owner, metadataURI and price\n  function assetInfo (uint256 id) external view returns (address owner, string memory metdataURI, uint256 price) {\n    require(id < _assetInfo.length, \"Invalid Id provided to assetInfo.\");\n\n    //AssetInfo memory a = _assetInfo[0];\n    address _owner = _assetInfo[0].owner;\n    return (_owner, \"ab\", _assetInfo.length);\n    //return _assetInfo[id];\n  } \n}\n",
  "sourcePath": "D:\\Photerloo\\playground\\blockchain-developer-bootcamp-final-project\\contracts\\UDALProtocol.sol",
  "compiler": {
    "name": "solc",
    "version": "0.5.16+commit.9c3226ce.Emscripten.clang"
  },
  "schemaVersion": "3.4.2",
  "updatedAt": "2021-09-22T20:32:34.377Z",
  "networkType": "ethereum",
  "devdoc": {
    "methods": {
      "assetInfo(uint256)": {
        "details": "Throws if photo with ID is not valid",
        "params": {
          "id": "Id of the photo"
        },
        "return": "owner, metadataURI and price"
      },
      "create(address,string,string,uint256)": {
        "details": "metaDataURI and assetURI should have prefix http, https, ipfs or ar.  For example, use ar://MAVgEMO3qlqe-qHNVs00qgwwbCb6FY2k15vJP3gBLW4 instead of https://arweave.net/MAVgEMO3qlqe-qHNVs00qgwwbCb6FY2k15vJP3gBLW4.",
        "params": {
          "assetURI": "URI of the full size photo the licence would be purchased for.",
          "metaDataURI": "URI of the json file containing the metadata in JSON format.",
          "owner": "The address of the photo copyright owner",
          "price": "To purchase a licence"
        },
        "return": "The ID of the newly created asset.  This ID can be used to purchase a licence to the photo."
      }
    }
  },
  "userdoc": {
    "methods": {
      "assetInfo(uint256)": {
        "notice": "The stored information for a given photo"
      },
      "create(address,string,string,uint256)": {
        "notice": "Registers a photo for sale in the contract"
      }
    }
  }
}