{
  "contractName": "UDALProtocol",
  "abi": [
    {
      "anonymous": false,
      "inputs": [
        {
          "indexed": false,
          "internalType": "uint256",
          "name": "assetId",
          "type": "uint256"
        }
      ],
      "name": "AssetCreated",
      "type": "event"
    },
    {
      "anonymous": false,
      "inputs": [
        {
          "indexed": false,
          "internalType": "string",
          "name": "assetURI",
          "type": "string"
        }
      ],
      "name": "LicencePurchased",
      "type": "event"
    },
    {
      "constant": false,
      "inputs": [
        {
          "internalType": "string",
          "name": "metaDataURI",
          "type": "string"
        },
        {
          "internalType": "string",
          "name": "assetURI",
          "type": "string"
        },
        {
          "internalType": "uint256",
          "name": "price",
          "type": "uint256"
        },
        {
          "internalType": "address",
          "name": "owner",
          "type": "address"
        }
      ],
      "name": "createAsset",
      "outputs": [],
      "payable": false,
      "stateMutability": "nonpayable",
      "type": "function"
    },
    {
      "constant": true,
      "inputs": [],
      "name": "getCounter",
      "outputs": [
        {
          "internalType": "uint256",
          "name": "",
          "type": "uint256"
        }
      ],
      "payable": false,
      "stateMutability": "view",
      "type": "function"
    },
    {
      "constant": true,
      "inputs": [
        {
          "internalType": "uint256",
          "name": "assetId",
          "type": "uint256"
        }
      ],
      "name": "assetInfo",
      "outputs": [
        {
          "internalType": "address",
          "name": "owner",
          "type": "address"
        },
        {
          "internalType": "string",
          "name": "metaDataURI",
          "type": "string"
        },
        {
          "internalType": "uint256",
          "name": "price",
          "type": "uint256"
        }
      ],
      "payable": false,
      "stateMutability": "view",
      "type": "function"
    },
    {
      "constant": false,
      "inputs": [
        {
          "internalType": "uint256",
          "name": "assetId",
          "type": "uint256"
        }
      ],
      "name": "purchaseLicence",
      "outputs": [],
      "payable": true,
      "stateMutability": "payable",
      "type": "function"
    },
    {
      "constant": true,
      "inputs": [
        {
          "internalType": "uint256",
          "name": "assetId",
          "type": "uint256"
        }
      ],
      "name": "getAssetURI",
      "outputs": [
        {
          "internalType": "string",
          "name": "",
          "type": "string"
        }
      ],
      "payable": false,
      "stateMutability": "view",
      "type": "function"
    }
  ],
  "bytecode": "0x608060405234801561001057600080fd5b506109e1806100206000396000f3fe60806040526004361061004a5760003560e01c80635b794b441461004f5780638ada066e1461007d5780639cd7fdc9146100a8578063a879fcbb1461015c578063b7468dc41461024a575b600080fd5b61007b6004803603602081101561006557600080fd5b810190808035906020019092919050505061034f565b005b34801561008957600080fd5b50610092610496565b6040518082815260200191505060405180910390f35b3480156100b457600080fd5b506100e1600480360360208110156100cb57600080fd5b81019080803590602001909291905050506104a0565b6040518080602001828103825283818151815260200191508051906020019080838360005b83811015610121578082015181840152602081019050610106565b50505050905090810190601f16801561014e5780820380516001836020036101000a031916815260200191505b509250505060405180910390f35b34801561016857600080fd5b506101956004803603602081101561017f57600080fd5b81019080803590602001909291905050506106a0565b604051808473ffffffffffffffffffffffffffffffffffffffff1673ffffffffffffffffffffffffffffffffffffffff16815260200180602001838152602001828103825284818151815260200191508051906020019080838360005b8381101561020d5780820151818401526020810190506101f2565b50505050905090810190601f16801561023a5780820380516001836020036101000a031916815260200191505b5094505050505060405180910390f35b34801561025657600080fd5b5061034d6004803603608081101561026d57600080fd5b810190808035906020019064010000000081111561028a57600080fd5b82018360208201111561029c57600080fd5b803590602001918460018302840111640100000000831117156102be57600080fd5b9091929391929390803590602001906401000000008111156102df57600080fd5b8201836020820111156102f157600080fd5b8035906020019184600183028401116401000000008311171561031357600080fd5b909192939192939080359060200190929190803573ffffffffffffffffffffffffffffffffffffffff169060200190929190505050610827565b005b60015481106103c6576040517f08c379a00000000000000000000000000000000000000000000000000000000081526004018080602001828103825260148152602001807f496e76616c69642049642070726f76696465642e00000000000000000000000081525060200191505060405180910390fd5b7fc559f1c4dc5d2cebc5b5608aada3d9b3455fb40a8ef80351bc155b4ee7129c3c60008083815260200190815260200160002060020160405180806020018281038252838181546001816001161561010002031660029004815260200191508054600181600116156101000203166002900480156104855780601f1061045a57610100808354040283529160200191610485565b820191906000526020600020905b81548152906001019060200180831161046857829003601f168201915b50509250505060405180910390a150565b6000600154905090565b60606001548210610519576040517f08c379a00000000000000000000000000000000000000000000000000000000081526004018080602001828103825260148152602001807f496e76616c69642049642070726f76696465642e00000000000000000000000081525060200191505060405180910390fd5b60008083815260200190815260200160002060050160003373ffffffffffffffffffffffffffffffffffffffff1673ffffffffffffffffffffffffffffffffffffffff16815260200190815260200160002060009054906101000a900460ff166105eb576040517f08c379a000000000000000000000000000000000000000000000000000000000815260040180806020018281038252601f8152602001807f53656e6420686173206e6f7420707572636861736564206c6963656e63652e0081525060200191505060405180910390fd5b6000808381526020019081526020016000206002018054600181600116156101000203166002900480601f0160208091040260200160405190810160405280929190818152602001828054600181600116156101000203166002900480156106945780601f1061066957610100808354040283529160200191610694565b820191906000526020600020905b81548152906001019060200180831161067757829003601f168201915b50505050509050919050565b600060606000600154841061071d576040517f08c379a00000000000000000000000000000000000000000000000000000000081526004018080602001828103825260148152602001807f496e76616c69642049642070726f76696465642e00000000000000000000000081525060200191505060405180910390fd5b60008085815260200190815260200160002060000160009054906101000a900473ffffffffffffffffffffffffffffffffffffffff1660008086815260200190815260200160002060010160008087815260200190815260200160002060030154818054600181600116156101000203166002900480601f0160208091040260200160405190810160405280929190818152602001828054600181600116156101000203166002900480156108135780601f106107e857610100808354040283529160200191610813565b820191906000526020600020905b8154815290600101906020018083116107f657829003601f168201915b505050505091509250925092509193909250565b600080600060015481526020019081526020016000209050818160000160006101000a81548173ffffffffffffffffffffffffffffffffffffffff021916908373ffffffffffffffffffffffffffffffffffffffff1602179055508686826001019190610895929190610907565b5084848260020191906108a9929190610907565b508281600301819055507fe9667cd49094a292b02a1d8555f54c265b42912082c2f32b2050393b06d835986001546040518082815260200191505060405180910390a160016000815480929190600101919050555050505050505050565b828054600181600116156101000203166002900490600052602060002090601f016020900481019282601f1061094857803560ff1916838001178555610976565b82800160010185558215610976579182015b8281111561097557823582559160200191906001019061095a565b5b5090506109839190610987565b5090565b6109a991905b808211156109a557600081600090555060010161098d565b5090565b9056fea265627a7a723158207535ba54b47f1571287e50236b7bf938dfb80fa173e7b57e6e0567da7a44fdbe64736f6c63430005100032",
  "source": "// SPDX-License-Identifier: MIT\npragma solidity >=0.4.22 <0.9.0;\n\ncontract UDALProtocol {\n  struct AssetInfo {\n      address owner;              \n      string metaDataURI;      \n      string assetURI;\n      uint256 price;\n      uint256 purchasedLicenceCounter;\n      mapping(address => bool) purchasedLicences;\n  }\n\n  mapping(uint256 => AssetInfo) private _assetInfo;\n  uint256 private counter;\n  \n  event AssetCreated(uint256 assetId);\n  event LicencePurchased(string assetURI);\n\n  /// @notice Registers a photo for sale in the contract\n  /// @dev metaDataURI and assetURI should have prefix http, https, ipfs or ar.  For example, use ar://MAVgEMO3qlqe-qHNVs00qgwwbCb6FY2k15vJP3gBLW4 \n  ///      instead of https://arweave.net/MAVgEMO3qlqe-qHNVs00qgwwbCb6FY2k15vJP3gBLW4.  Emits Created with ID of asset when completed.\n  /// @param metaDataURI URI of the json file containing the metadata in JSON format.\n  /// @param assetURI URI of the full size photo the licence would be purchased for.\n  /// @param price To purchase a licence\n  /// @param owner The address of the photo copyright owner\n  function createAsset (string calldata metaDataURI, string calldata assetURI, uint256 price, address owner) external {\n    AssetInfo storage newAssetInfo = _assetInfo[counter];\n    newAssetInfo.owner = owner;\n    newAssetInfo.metaDataURI = metaDataURI;\n    newAssetInfo.assetURI = assetURI;\n    newAssetInfo.price = price;\n    emit AssetCreated(counter);\n    counter++;\n  }\n\n  function getCounter() external view returns (uint256) {\n    return counter;\n  }\n\n  /// @notice The stored information for a given photo\n  /// @dev Throws if photo with ID is not valid\n  /// @param assetId Id of the photo\n  /// @return owner of the asset\n  /// @return metaDataURI of the asset\n  /// @return price of the asset\n  function assetInfo (uint256 assetId) external view returns (address owner, string memory metaDataURI, uint256 price) {\n    require(assetId < counter, \"Invalid Id provided.\");\n    return (_assetInfo[assetId].owner, _assetInfo[assetId].metaDataURI, _assetInfo[assetId].price);\n  } \n\n  /// @notice Creates a licence for caller and sends ETH to photo copyright\n  /// @dev Throws if ETH sent with contract is less than price\n  /// @param assetId Id of the photo to purchase\n  function purchaseLicence(uint256 assetId) external payable {\n      require(assetId < counter, \"Invalid Id provided.\");\n      emit LicencePurchased(_assetInfo[assetId].assetURI);\n  }\n\n  function getAssetURI(uint256 assetId) external view returns (string memory){\n    require(assetId < counter, \"Invalid Id provided.\");\n    require(_assetInfo[assetId].purchasedLicences[msg.sender], \"Send has not purchased licence.\");\n\n    return _assetInfo[assetId].assetURI;\n  }\n}\n",
  "sourcePath": "D:\\Photerloo\\playground\\blockchain-developer-bootcamp-final-project\\contracts\\UDALProtocol.sol",
  "compiler": {
    "name": "solc",
    "version": "0.5.16+commit.9c3226ce.Emscripten.clang"
  },
  "schemaVersion": "3.4.2",
  "updatedAt": "2021-09-25T00:35:20.943Z",
  "devdoc": {
    "methods": {
      "assetInfo(uint256)": {
        "details": "Throws if photo with ID is not valid",
        "params": {
          "assetId": "Id of the photo"
        },
        "return": "owner of the assetmetaDataURI of the assetprice of the asset"
      },
      "createAsset(string,string,uint256,address)": {
        "details": "metaDataURI and assetURI should have prefix http, https, ipfs or ar.  For example, use ar://MAVgEMO3qlqe-qHNVs00qgwwbCb6FY2k15vJP3gBLW4       instead of https://arweave.net/MAVgEMO3qlqe-qHNVs00qgwwbCb6FY2k15vJP3gBLW4.  Emits Created with ID of asset when completed.",
        "params": {
          "assetURI": "URI of the full size photo the licence would be purchased for.",
          "metaDataURI": "URI of the json file containing the metadata in JSON format.",
          "owner": "The address of the photo copyright owner",
          "price": "To purchase a licence"
        }
      },
      "purchaseLicence(uint256)": {
        "details": "Throws if ETH sent with contract is less than price",
        "params": {
          "assetId": "Id of the photo to purchase"
        }
      }
    }
  },
  "userdoc": {
    "methods": {
      "assetInfo(uint256)": {
        "notice": "The stored information for a given photo"
      },
      "createAsset(string,string,uint256,address)": {
        "notice": "Registers a photo for sale in the contract"
      },
      "purchaseLicence(uint256)": {
        "notice": "Creates a licence for caller and sends ETH to photo copyright"
      }
    }
  }
}