{
  "contractName": "UDALProtocol",
  "abi": [
    {
      "anonymous": false,
      "inputs": [
        {
          "indexed": false,
          "internalType": "uint256",
          "name": "id",
          "type": "uint256"
        }
      ],
      "name": "Created",
      "type": "event"
    },
    {
      "constant": false,
      "inputs": [
        {
          "internalType": "address",
          "name": "owner",
          "type": "address"
        },
        {
          "internalType": "string",
          "name": "metaDataURI",
          "type": "string"
        },
        {
          "internalType": "string",
          "name": "assetURI",
          "type": "string"
        },
        {
          "internalType": "uint256",
          "name": "price",
          "type": "uint256"
        }
      ],
      "name": "createAsset",
      "outputs": [],
      "payable": false,
      "stateMutability": "nonpayable",
      "type": "function"
    },
    {
      "constant": false,
      "inputs": [],
      "name": "getCounter",
      "outputs": [
        {
          "internalType": "uint256",
          "name": "",
          "type": "uint256"
        }
      ],
      "payable": false,
      "stateMutability": "nonpayable",
      "type": "function"
    },
    {
      "constant": true,
      "inputs": [
        {
          "internalType": "uint256",
          "name": "id",
          "type": "uint256"
        }
      ],
      "name": "assetInfo",
      "outputs": [
        {
          "internalType": "address",
          "name": "owner",
          "type": "address"
        },
        {
          "internalType": "string",
          "name": "metdataURI",
          "type": "string"
        },
        {
          "internalType": "uint256",
          "name": "price",
          "type": "uint256"
        }
      ],
      "payable": false,
      "stateMutability": "view",
      "type": "function"
    }
  ],
  "bytecode": "0x608060405234801561001057600080fd5b506106aa806100206000396000f3fe608060405234801561001057600080fd5b50600436106100415760003560e01c806345d7894c146100465780638ada066e1461013e578063a879fcbb1461015c575b600080fd5b61013c6004803603608081101561005c57600080fd5b81019080803573ffffffffffffffffffffffffffffffffffffffff1690602001909291908035906020019064010000000081111561009957600080fd5b8201836020820111156100ab57600080fd5b803590602001918460018302840111640100000000831117156100cd57600080fd5b9091929391929390803590602001906401000000008111156100ee57600080fd5b82018360208201111561010057600080fd5b8035906020019184600183028401116401000000008311171561012257600080fd5b90919293919293908035906020019092919050505061023d565b005b6101466103fd565b6040518082815260200191505060405180910390f35b6101886004803603602081101561017257600080fd5b8101908080359060200190929190505050610407565b604051808473ffffffffffffffffffffffffffffffffffffffff1673ffffffffffffffffffffffffffffffffffffffff16815260200180602001838152602001828103825284818151815260200191508051906020019080838360005b838110156102005780820151818401526020810190506101e5565b50505050905090810190601f16801561022d5780820380516001836020036101000a031916815260200191505b5094505050505060405180910390f35b610245610571565b60405180608001604052808873ffffffffffffffffffffffffffffffffffffffff16815260200187878080601f016020809104026020016040519081016040528093929190818152602001838380828437600081840152601f19601f82011690508083019250505050505050815260200185858080601f016020809104026020016040519081016040528093929190818152602001838380828437600081840152601f19601f82011690508083019250505050505050815260200183815250905080600080600154815260200190815260200160002060008201518160000160006101000a81548173ffffffffffffffffffffffffffffffffffffffff021916908373ffffffffffffffffffffffffffffffffffffffff160217905550602082015181600101908051906020019061037e9291906105af565b50604082015181600201908051906020019061039b9291906105af565b50606082015181600301559050507f06acbfb32bcf8383f3b0a768b70ac9ec234ea0f2d3b9c77fa6a2de69b919aad16001546040518082815260200191505060405180910390a160016000815480929190600101919050555050505050505050565b6000600154905090565b6000606060006001548410610467576040517f08c379a00000000000000000000000000000000000000000000000000000000081526004018080602001828103825260218152602001806106556021913960400191505060405180910390fd5b60008085815260200190815260200160002060000160009054906101000a900473ffffffffffffffffffffffffffffffffffffffff1660008086815260200190815260200160002060010160008087815260200190815260200160002060030154818054600181600116156101000203166002900480601f01602080910402602001604051908101604052809291908181526020018280546001816001161561010002031660029004801561055d5780601f106105325761010080835404028352916020019161055d565b820191906000526020600020905b81548152906001019060200180831161054057829003601f168201915b505050505091509250925092509193909250565b6040518060800160405280600073ffffffffffffffffffffffffffffffffffffffff1681526020016060815260200160608152602001600081525090565b828054600181600116156101000203166002900490600052602060002090601f016020900481019282601f106105f057805160ff191683800117855561061e565b8280016001018555821561061e579182015b8281111561061d578251825591602001919060010190610602565b5b50905061062b919061062f565b5090565b61065191905b8082111561064d576000816000905550600101610635565b5090565b9056fe496e76616c69642049642070726f766964656420746f206173736574496e666f2ea265627a7a723158204350b00d20dfd15bb7df22dc2e7d801846e9e822bd039e864ac37202180231e864736f6c63430005100032",
  "source": "// SPDX-License-Identifier: MIT\npragma solidity >=0.4.22 <0.9.0;\n\ncontract UDALProtocol {\n  struct AssetInfo {\n      address owner;              \n      string metaDataURI;      \n      string assetURI;\n      uint256 price;\n  }\n\n  mapping(uint256 => AssetInfo) private _assetInfo;\n  uint256 private counter;\n  event Created(uint256 id); \n\n  /// @notice Registers a photo for sale in the contract\n  /// @dev metaDataURI and assetURI should have prefix http, https, ipfs or ar.  For example, use ar://MAVgEMO3qlqe-qHNVs00qgwwbCb6FY2k15vJP3gBLW4 \n  ///      instead of https://arweave.net/MAVgEMO3qlqe-qHNVs00qgwwbCb6FY2k15vJP3gBLW4.  Emits Created with ID of asset when completed.\n  /// @param owner The address of the photo copyright owner\n  /// @param metaDataURI URI of the json file containing the metadata in JSON format.\n  /// @param assetURI URI of the full size photo the licence would be purchased for.\n  /// @param price To purchase a licence\n  function createAsset (address owner, string calldata metaDataURI, string calldata assetURI, uint256 price) external {\n    AssetInfo memory newAssetInfo = AssetInfo(owner, metaDataURI, assetURI, price);\n    _assetInfo[counter] = newAssetInfo;\n    emit Created(counter);\n    counter++;\n  }\n\n  function getCounter() external returns (uint256) {\n    return counter;\n  }\n\n  /// @notice The stored information for a given photo\n  /// @dev Throws if photo with ID is not valid\n  /// @param id Id of the photo\n  /// @return owner, metadataURI and price\n  function assetInfo (uint256 id) external view returns (address owner, string memory metdataURI, uint256 price) {\n    require(id < counter, \"Invalid Id provided to assetInfo.\");\n\n    //AssetInfo memory a = _assetInfo[0];\n    //address _owner = _assetInfo[0].owner;\n    return (_assetInfo[id].owner, _assetInfo[id].metaDataURI, _assetInfo[id].price);\n    //return _assetInfo[id];\n  } \n}\n",
  "sourcePath": "D:\\Photerloo\\playground\\blockchain-developer-bootcamp-final-project\\contracts\\UDALProtocol.sol",
  "compiler": {
    "name": "solc",
    "version": "0.5.16+commit.9c3226ce.Emscripten.clang"
  },
  "schemaVersion": "3.4.2",
  "updatedAt": "2021-09-24T17:46:31.821Z",
  "networkType": "ethereum",
  "devdoc": {
    "methods": {
      "assetInfo(uint256)": {
        "details": "Throws if photo with ID is not valid",
        "params": {
          "id": "Id of the photo"
        },
        "return": "owner, metadataURI and price"
      },
      "createAsset(address,string,string,uint256)": {
        "details": "metaDataURI and assetURI should have prefix http, https, ipfs or ar.  For example, use ar://MAVgEMO3qlqe-qHNVs00qgwwbCb6FY2k15vJP3gBLW4       instead of https://arweave.net/MAVgEMO3qlqe-qHNVs00qgwwbCb6FY2k15vJP3gBLW4.  Emits Created with ID of asset when completed.",
        "params": {
          "assetURI": "URI of the full size photo the licence would be purchased for.",
          "metaDataURI": "URI of the json file containing the metadata in JSON format.",
          "owner": "The address of the photo copyright owner",
          "price": "To purchase a licence"
        }
      }
    }
  },
  "userdoc": {
    "methods": {
      "assetInfo(uint256)": {
        "notice": "The stored information for a given photo"
      },
      "createAsset(address,string,string,uint256)": {
        "notice": "Registers a photo for sale in the contract"
      }
    }
  }
}